:020000040800F2
:1000000018460020450100088538000879350008A9
:1000100081380008B90400085D6B0008000000008A
:10002000000000000000000000000000514D00082A
:10003000C505000800000000B13D0008594E000849
:100040005F0100085F0100085F0100085F01000810
:100050005F0100085F0100085F0100085F01000800
:100060005F0100085F0100085F01000889050008C2
:100070005F0100085F0100085F0100085F010008E0
:100080005F0100085F0100085F0100085F010008D0
:10009000C56A00085F0100085F010008E705000865
:1000A0005F0100085F0100085F0100085F010008B0
:1000B0005F0100085F0100085F0100085F010008A0
:1000C0005F0100085F0100085F0100085F01000890
:1000D0005F0100085F0100085F0100085F01000880
:1000E0005F0100085F0100085F0100085F01000870
:1000F0005F0100085F0100085F0100085F01000860
:100100005F0100085F0100085F0100085F0100084F
:100110005F0100085F010008594F00085F010008F7
:100120005F0100085F0100085F0100085F0100082F
:10013000DFF80CD000F074F800480047258500086F
:10014000184600200648804706480047FEE7FEE7BD
:10015000FEE7FEE7FEE7FEE7FEE7FEE7FEE7FEE777
:10016000014F00083101000840EA01039B0703D05A
:1001700009E008C9121F08C0042AFAD203E011F8E6
:10018000013B00F8013B521EF9D27047D2B201E0A8
:1001900000F8012B491EFBD270470022F6E710B58C
:1001A00013460A4604461946FFF7F0FF204610BDE5
:1001B000421C10F8011B0029FBD1801A704730B592
:1001C00005460020034600E05B1C934205D2EC5C30
:1001D000C85C201A01D1002CF6D130BD70B50F4D8E
:1001E00000B92868002412E00A4602E09E4203D0CB
:1001F000521C1378002BF9D1DAB2224305D02BB16F
:1002000024B1002100F8011B04E00446401C0678DC
:10021000002EE9D12860204670BD0000CC010020EE
:10022000064C074D06E0E06840F0010394E8070043
:1002300098471034AC42F6D3FFF77EFFC08C00081D
:10024000E08C000870B58C1810F8015B15F00703FE
:1002500001D110F8013B2A1106D110F8012B03E05F
:1002600010F8016B01F8016B5B1EF9D12B0705D467
:100270000023521E0DD401F8013BFAE710F8013BB0
:10028000CB1A921C03E013F8015B01F8015B521ECC
:10029000F9D5A142D8D3002070BD70B50446002521
:1002A0002068806800F00100F0B12068806820F0CC
:1002B00001002168886001F029F905460EE001F08F
:1002C00025F9401B022809D9A06A40F01000A0625D
:1002D000E06A40F00100E062012070BD20688068A3
:1002E00000F001000028EAD10020F6E770B50546CD
:1002F0006C6AA06A00F05000E0B9A06A40F4007097
:10030000A0622068806800F46020B0F5602F0DD1F5
:10031000E06858B9A06A20F48070A062A06A00F476
:10032000805018B9A06A40F00100A062204600F099
:10033000DFFA03E0206A016B2846884770BD70B57C
:1003400005466C6AA06A40F04000A062E06A40F096
:100350000400E062204600F0CDFA70BD70B504469E
:10036000656A284600F0C5FA70BD000038B504463D
:100370000025002000902068806800F0010080BB0C
:100380002068806840F00100216888601648006895
:100390001649B0FBF1F0009002E00098401E00907A
:1003A00000980028F9D101F0B1F8054613E001F0FA
:1003B000ADF8401B02280ED9A06A40F01000A062E0
:1003C000E06A40F00100E06200BF002084F82400F1
:1003D00000BF012038BD2068806800F001000028BF
:1003E000E5D00020F6E70000AC00002040420F00FE
:1003F00010B504462146024802F020FC10BD000062
:10040000F003002010B5044802F02BFC042801D0B2
:10041000012010BD0020FCE7F003002010B50024EF
:1004200000F014F8012801D0012010BD064802F0A8
:100430002CFC044634B94FF40061034802F0B2FAD0
:1004400000B101242046F0E7F003002008B50120A8
:1004500000909DF8000008BD2DE9F84304460D46C4
:1004600016461F464FF0000833462A4621460548E7
:10047000009702F0BBFC08B14FF001084046BDE810
:10048000F8830000F00300202DE9F84304460D46F0
:1004900016461F464FF0000833462A4621460548B7
:1004A000009702F0C9FD08B14FF001084046BDE8D1
:1004B000F8830000F003002000BFFEE70346042B92
:1004C00015D007DC7BB1012B0ED0022B0DD0032BF6
:1004D00012D10BE0202B0BD0212B0AD0222B09D0DC
:1004E000232B09D107E008E007E006E005E004E07F
:1004F00003E002E001E000E000BF00BF0020704721
:100500000020704710B500220449054804F09EFE03
:100510000449034804F093FE002010BDF437002086
:1005200050250020F42F002070B504460D462946C2
:10053000204604F02DFC024804F05DFE002070BD52
:10054000502500202DE9F04104460D4600260A48BA
:10055000D0F81872D7F8140210B10120BDE8F0816C
:100560002A462146044804F071FE034804F0C0FE08
:1005700006463046F2E70000502500200346196089
:100580009A8000207047000010B5024800F07AFB06
:1005900010BD00009803002030B590F840500124B1
:1005A000AC40C56B6C60046863604468102C04D177
:1005B0000468A2600468E16003E00468A160046864
:1005C000E26030BD704770B504460D46372003F039
:1005D000F0FB04F031FC002070BD024600207047A3
:1005E00002460020704710B5202000F0CFFD10BD5E
:1005F000704730B504460D4600222946204600F0DB
:1006000001F830BDF0B50346012500241148407AB9
:1006100001281CDC00200F4E767A0E4FB855384664
:10062000467A001D40F82630001F467A0830825571
:100630003E46707A461C7E72044604F13000087013
:100640003A2048702F2088700020C8700025284666
:10065000F0BD00000C40002070B50A480468001D81
:100660000568001D0668344454B108220649204636
:1006700002F084FF042204491031284602F07EFF74
:1006800070BD0000E8F7FF1F72000020F8B50446B7
:1006900000260020009000BF94F82400012801D11A
:1006A0000220F8BD012084F8240000BF2046FFF797
:1006B000F4FD0646002E62D1A06A20F4885040F076
:1006C0000200A062022001F03DFB30490968B1FB45
:1006D000F0F04000009002E00098401E009000986A
:1006E0000028F9D12046FFF741FE2068806840F0DD
:1006F00008002168886000F009FF054611E000F05D
:1007000005FF401B0A280CD9A06A20F0020040F027
:100710001000A06200BF002084F8240000BF012068
:10072000BFE72068806800F008000028E7D1206853
:10073000806840F004002168886000F0E7FE05460C
:1007400011E000F0E3FE401B0A280CD9A06A20F05B
:10075000020040F01000A06200BF002084F82400D6
:1007600000BF01209DE72068806800F00400002899
:10077000E7D1A06A20F0020040F00100A06200BFB3
:10078000002084F8240000BF30468AE7AC00002037
:1007900038B5024600230020009000BF92F82400E4
:1007A000012801D1022038BD012082F8240000BFB9
:1007B0004868072812D21068406B0C79641E04EB5D
:1007C00084051F24AC40A0430D796D1E05EB850503
:1007D0000C68AC4020431468606327E048680D282B
:1007E00012D21068006B0C79E41F04EB84051F24FF
:1007F000AC40A0430D79ED1F05EB85050C68AC40BE
:1008000020431468206311E01068C06A0C790D3C25
:1008100004EB84051F24AC40A0430D790D3D05EB8E
:1008200085050C68AC4020431468E06208680A281B
:1008300012D31068C0680C780A3C04EB4405072406
:10084000AC40A0430D780A3D05EB45058C68AC40F3
:1008500020431468E0600FE0106800690C7804EB36
:1008600044050724AC40A0430D7805EB45058C6892
:10087000AC402043146820610868102802D0086842
:10088000112827D1174C1068A0421ED1106880682B
:1008900000F40000F0B91068806840F400001468AB
:1008A000A0600868102815D10F4800680F4CB0FBF5
:1008B000F4F000EB80004000009002E00098401E41
:1008C000009000980028F9D104E0906A40F02000E0
:1008D0009062012300BF002082F8240000BF184668
:1008E00061E7000000240140AC00002040420F00FE
:1008F00070477047704700002DE9F041044600271B
:1009000000250026A84614B90120BDE8F081A068A2
:1009100010B1606900B100BFA06A30B90020E06288
:1009200084F82400204600F097F82046FFF7B5FC35
:100930000746A06A00F01000002873D1002F7ED176
:10094000A06A20F4885040F00200A0623F4AD4E937
:100950000001904208D1E069B0F5402F02D14FF478
:10096000002002E0E06900E0E0690143E06841EA5C
:1009700040000643A068B0F5807F02D0A06801283F
:1009800002D14FF4807000E0002005436069012827
:1009900011D1E06838B9A069401E4FF4006141EA06
:1009A0004030054307E0A06A40F02000A062E06A02
:1009B00040F00100E0622068406820F4694028436C
:1009C00021684860206880682149084030432168D8
:1009D0008860A068B0F5807F02D0A068012802D1AD
:1009E0004FF4807000E00020B0F5807F03D1208AB2
:1009F000401E4FEA00582068C06A20F4700040EAA8
:100A000008002168C8622068806812490840B04226
:100A100009D10020E062A06A20F0020040F001004D
:100A2000A06211E00BE0A06A20F0020040F010008C
:100A3000A062E06A40F00100E062012704E0A06AE1
:100A400040F01000A062012738465EE7003C0140FC
:100A5000FDF7E1FFFE0E1FFF10B586B00446002033
:100A600002900390049005902149206888423DD16E
:100A700000BF2048806940F400701E498861084624
:100A8000806900F40070019000BF00BF00BF0846FD
:100A9000806940F0040088610846806900F0040025
:100AA000019000BF00BF022002900320039002A922
:100AB000114800F079FB1148114908600020486096
:100AC00000210F4881608021C160490001618900D7
:100AD000416100218161C16100F0A0FA08B1FFF716
:100AE00087FD00BF06482062446200BF06B010BD0B
:100AF00000240140001002400008014008000240AC
:100B0000980300202DE9F04104460D4616460027C3
:100B100057492068884203D056492068884205D149
:100B20005348001D006800F4702000E000200028F9
:100B30007ED100BF94F82400012802D10220BDE834
:100B4000F081012084F8240000BF2046FFF70EFC4E
:100B50000746002F6DD1A06A40F60161884340F43A
:100B60008070A06243492068884209D14048001D36
:100B7000006800F4702008B9012002E0002000E0C5
:100B8000012078B1A06A20F48010A062206840683B
:100B900000F4806000B3A06A20F4005040F480505C
:100BA000A06219E0A06A40F48010A0623049206879
:100BB000884203D02F492068884205D12C48001D67
:100BC000006800F4806000E0002028B1A06A20F4F2
:100BD000005040F48050A062A06A00F4805020B120
:100BE000E06A20F00600E06201E00020E06200BF61
:100BF000002084F8240000BF1F48216A88621F4833
:100C0000216AC8621E48216A08636FF002002168E9
:100C100008602068806840F48070216888602268DD
:100C200002F14C0133462A46206A00F03DFA01E009
:100C30001AE014E02068806800F46020B0F5602FAE
:100C400006D12068806840F4A000216888600CE02C
:100C50002068806840F480102168886005E000BF4B
:100C6000002084F8240000E00127384667E70000F0
:100C70000024014000280140ED0200085D03000847
:100C80003F03000870B50446E06B056820680668FD
:100C900094F84010042088402840002875D006F0C1
:100CA00004000028FAD02068006800F0200028B96D
:100CB0002068006820F0040021680860D549206899
:100CC000884254D9D34978392068884201D1042018
:100CD00049E0D04964392068884201D1402042E08F
:100CE000CC4950392068884201D100153BE0C94900
:100CF0003C392068884202D14FF4804033E0C54936
:100D000028392068884202D14FF480202BE0C14965
:100D100014392068884202D14FF4800023E0BD4995
:100D20002068884201D1C0041DE0BB492068884288
:100D300001D1042017E0B84914312068884201D15C
:100D4000402010E0B44928312068884201D10015C4
:100D500009E0B1493C312068884202D14FF480401B
:100D600001E04FF48020AC49091F086054E0A94914
:100D700078392068884201D104204AE0A5496439C5
:100D80002068884202D1402043E04CE0A14950391C
:100D90002068884201D100153BE09E493C3920681B
:100DA000884202D14FF4804033E09A4928392068C4
:100DB000884202D14FF480202BE0964914392068F4
:100DC000884202D14FF4800023E092492068884293
:100DD00001D1C0041DE090492068884201D104205F
:100DE00017E08D4914312068884201D1402010E07D
:100DF000894928312068884201D1001509E08649D7
:100E00003C312068884202D14FF4804001E04FF429
:100E10008020804980394860E06A002802D020465E
:100E2000E16A8847F4E094F84010022088402840A6
:100E3000002871D006F002000028FAD0206800686F
:100E400000F0200040B92068006820F00A00216806
:100E50000860012084F821006E492068884254D936
:100E60006C4978392068884201D1022049E06949FB
:100E700064392068884201D1202042E06549503918
:100E80002068884201D140153BE062493C39206826
:100E9000884202D14FF4005033E05E49283920687F
:100EA000884202D14FF400302BE05A4914392068AF
:100EB000884202D14FF4001023E05649206888424E
:100EC00001D180041DE054492068884201D10220EC
:100ED00017E0514914312068884201D1202010E0E8
:100EE0004D4928312068884201D1401509E04A491E
:100EF0003C312068884202D14FF4005001E04FF4A9
:100F000000304549091F086054E04249783920689B
:100F1000884202D102204AE057E03E496439206805
:100F2000884201D1202042E03A4950392068884265
:100F300001D140153BE037493C392068884202D155
:100F40004FF4005033E0334928392068884202D1F9
:100F50004FF400302BE02F4914392068884202D129
:100F60004FF4001023E02B492068884201D180040F
:100F70001DE029492068884201D1022017E0264956
:100F800014312068884201D1202010E02249283104
:100F90002068884201D1401509E01F493C31206892
:100FA000884202D14FF4005001E04FF4003019495B
:100FB0008039486000BF002084F8200000BFA06A8C
:100FC00030B32046A16A884722E094F840100820F8
:100FD00088402840E0B106F00800C8B120680068E9
:100FE00020F00E002168086094F84010012088402D
:100FF000E16B48600120A06384F8210000BF00205D
:1010000084F8200000BF206B10B12046216B884778
:1010100070BD00008000024008040240014600222A
:1010200009B9012070471E4B086898420BD21D4B2E
:101030000868C01A1423B0FBF3F080000864194854
:101040000838C8630AE0164B0868C01A1423B0FBBE
:10105000F3F08000086412480838C863022081F861
:1010600021000868026843F6F0708243D1E9010369
:101070001843CB6818430B6918434B6918438B69B5
:101080001843CB6918430243086802600020886354
:10109000012081F82100002081F8200000BFC1E775
:1010A00008040240080002402DE9F04104460D46C4
:1010B00016461F464FF0000800BF94F82000012894
:1010C00002D10220BDE8F081012084F8200000BF99
:1010D00094F8210001282CD1022084F8210000205E
:1010E000A0632068006820F00100216808603B468A
:1010F000324629462046FFF74FFAE06A30B12068B1
:10110000006840F00E00216808600BE0206800686D
:1011100020F00400216808602068006840F00A00A0
:10112000216808602068006840F0010021680860BC
:1011300006E000BF002084F8200000BF4FF0020846
:101140004046BFE770B5044600F0E0F90646254684
:10115000681C10B104480078054400BF00F0D6F9BF
:10116000801BA842FAD370BDA800002010B5044629
:10117000202C06D1044802F0EBF8034802F0F7F8FF
:1011800000E000BF10BD00007404002010B504464C
:1011900004480068204020B1024804602046FFF760
:1011A000E5FF10BD140401402DE9F8470246002474
:1011B000002000258446002700237BE14FF0010832
:1011C00008FA03F4D1F8008008EA0400A0427DD1B7
:1011D000DFF8ECA2D1F80480A8EB0A09D0453AD098
:1011E00014DCB8F1030F50D009DCB8F1000F31D096
:1011F000B8F1010F1CD0B8F1020F49D120E0B8F1CD
:10120000110F18D0B8F1120F42D11EE0B9F5881FA6
:1012100025D006DCB9F5803F20D0B9F5801F37D145
:101220001AE0B9F5001F18D0B9F5041F30D117E046
:10123000D1F80CC02DE0D1F80C8008F1040C28E0A6
:10124000D1F80C8008F1080C23E0D1F80C8008F1EB
:101250000C0C1EE000BF00BF00BF00BF00BF00BFFE
:10126000D1F80880B8F1000F02D14FF0040C0BE068
:10127000D1F80880B8F1010F03D14FF0080C1461C8
:1012800002E04FF0080C546103E04FF0000C00E066
:1012900000BF00BFFF2801D8904601E002F104081A
:1012A0004646FF2802D84FEA830803E0A3F1080866
:1012B0004FEA88084746D6F800804FF00F0909FA30
:1012C00007F928EA09080CFA07F900E07AE048EA89
:1012D0000908C6F80080D1F8048008F08058B8F1F9
:1012E000805F6FD100BFDFF8DC81D8F8188048F04C
:1012F0000108DFF8D091C9F81880C846D8F81880DE
:1013000008F00108CDF8008000BF00BF4FEAB938EF
:101310004FEA930958F829504FEA83784FEA187931
:101320004FF00F0808FA09F825EA0805DFF8988158
:10133000424502D14FF0000824E0DFF89081424599
:1013400002D14FF001081DE0DFF88481424502D14F
:101350004FF0020816E0DFF87C81424502D14FF0E1
:1013600003080FE0DFF87081424502D14FF0040816
:1013700008E0DFF86881424502D14FF0050801E03E
:101380004FF006084FEA83794FEA197908FA09F80D
:1013900048EA0505DFF848814FEA930948F82950E3
:1013A000D1F8048008F48038B8F5803F0BD1DFF81D
:1013B0003481D8F8008048EA0008DFF82891C9F89D
:1013C00000800AE075E0DFF81C81D8F8008028EA88
:1013D0000008DFF81091C9F80080D1F8048008F403
:1013E0000038B8F5003F0ED1DFF8F88008F10408A6
:1013F000D8F8008048EA0008DFF8E89009F104090D
:10140000C9F800800DE0DFF8DC8008F10408D8F8A6
:10141000008028EA0008DFF8CC9009F10409C9F837
:101420000080D1F8048008F48018B8F5801F0ED130
:10143000DFF8B08008F10808D8F8008048EA000812
:10144000DFF8A09009F10809C9F800800DE0DFF885
:10145000948008F10808D8F8008028EA0008DFF82E
:10146000849009F10809C9F80080D1F8048008F4D3
:101470000018B8F5001F0ED1DFF8688008F10C08DD
:10148000D8F8008048EA0008DFF8589009F10C0904
:10149000C9F800800DE0DFF84C8008F10C08D8F89E
:1014A000008028EA0008DFF83C9009F10C09C9F82F
:1014B00000805B1C102BFFF481AEBDE8F8870000B4
:1014C000000011100010024000080140000C014013
:1014D000001001400014014000180140001C0140B0
:1014E0000800014000040140024693680B400BB124
:1014F000012000E000207047C2684A40C260704787
:101500000AB1016101E00B04036170470148006802
:1015100070470000A00000200348006803490978D4
:101520000844014908607047A0000020A80000207E
:1015300010B50848006840F0100006490860032014
:1015400000F0A6F8002000F007F800F02BF80020CB
:1015500010BD00000020024070B504460E4800781F
:101560004FF47A71B1FBF0F00C490968B1FBF0F56A
:10157000284601F063FE08B1012070BD102C07D28F
:1015800000222146501E00F044F80548046001E0A6
:101590000120F2E70020F0E7A8000020AC000020C6
:1015A000A400002008B500BF1148806940F0010088
:1015B0000F4988610846806900F00100009000BF73
:1015C00000BF00BF0846C06940F08050C8610846AF
:1015D000C06900F08050009000BF00BF00BF054907
:1015E000486820F0E06040F00070486000BF08BD2F
:1015F000001002400000014000BF00F01F02012166
:1016000091404209920002F1E022C2F8001100BFAD
:1016100070472DE9F05F80460D461646002702F020
:1016200033F9074639462A46334601F00700C0F130
:10163000070ABAF1040F02D94FF0040A01E0C0F121
:10164000070AD14600F1040ABAF1070F02D24FF09F
:10165000000A01E0A0F1030AD4464FF0010A0AFA99
:1016600009FAAAF1010A0AEA020A0AFA0CFA4FF088
:10167000010B0BFA0CFBABF1010B0BEA030B4AEA73
:101680000B042146404602F007F9BDE8F09F000038
:1016900000BF00F00702064B19684FF6FF03194020
:1016A000044B0B4343EA0221014B196000BF704712
:1016B0000CED00E00000FA0570B505460C4600216F
:1016C00004F08000802806D104F07F0605F1280090
:1016D00000EB461103E005F50A7000EB44111AB95E
:1016E000002088728B8004E001208872CB80180C67
:1016F0000881002070BD704770B504460D4604F1A6
:10170000280101EB45114A692946D4F85C0404F02C
:101710008DF870BD70B504460D4604F50A7101EBF5
:1017200045114A692946D4F85C0404F0ECF870BD10
:1017300070B504460D46002605F08000802806D1CD
:1017400005F07F0104F1280000EB411605E005F0EB
:101750007F0104F50A7000EB411605F07F00307040
:1017600005F08000C009707000BF94F828040128BB
:1017700001D1022070BD012084F8280400BF314649
:10178000206804F030FE00BF002084F8280400BF69
:1017900000BFEFE770B504460D46002605F0800057
:1017A000802806D105F07F0104F1280000EB4116E6
:1017B00003E004F50A7000EB45160020B07005F058
:1017C0007F003070C5F3C010707000BF94F828041B
:1017D000012801D1022070BD012084F8280400BF37
:1017E0003146206804F02CFF00BF002084F8280454
:1017F00000BF00BFEFE7024601F00F0302F50A70D9
:1018000000EB4310808B80B270472DE9F04704460F
:101810000D46174698464FF00009002605F0800057
:10182000802806D105F07F0104F1280000EB411665
:1018300005E005F07F0104F50A7000EB411605F0A4
:101840007F00307005F08000C0097070376186F845
:10185000038000BF94F82804012802D10220BDE8CB
:10186000F087012084F8280400BF3146206804F086
:10187000E1FB00BF002084F8280400BF4846EEE7E3
:101880002DE9F04105460E4617469846002406F01D
:101890007F0105F50A7000EB41146761C4F81880F8
:1018A0000020E061607006F07F00207006F07F008D
:1018B00020B92146286804F060FF03E0214628682B
:1018C00004F05BFF0020BDE8F08170B504460D46D2
:1018D000002605F08000802806D105F07F0104F184
:1018E000280000EB411603E004F50A7000EB4516F2
:1018F0000120B07005F07F003070C5F3C01070702B
:1019000000BF94F82804012801D1022070BD0120F5
:1019100084F8280400BF3146206804F0EBFE05F08F
:101920007F0020B904F22C41206804F086FE00BF3D
:10193000002084F8280400BF00BFE7E72DE9F0414C
:1019400005460E4617469846002406F07F0105F12D
:10195000280000EB41146761C4F818800020E061A2
:101960000120607006F07F00207006F07F0020B933
:101970002146286804F001FF03E02146286804F0AE
:10198000FCFE0020BDE8F08110B50446206805F09B
:10199000A1F800F40040B0F5004F02D1204601F05C
:1019A0008FFF206805F096F800F48060B0F5806F36
:1019B0000ED12068B0F8440020F480602168A1F8BE
:1019C0004400204600F044F90021204600F060F970
:1019D000206805F07FF800F48040B0F5804F07D113
:1019E0002068B0F8440020F480402168A1F8440049
:1019F000206805F06FF800F40050B0F5005F07D1E3
:101A00002068B0F8440020F400502168A1F8440098
:101A1000206805F05FF800F48050B0F5805F1AD1BF
:101A20002068B0F8400020F004002168A1F84000D0
:101A30002068B0F8400020F008002168A1F84000BC
:101A4000204600F017F92068B0F8440020F48050D8
:101A50002168A1F84400206805F03CF800F400601B
:101A6000B0F5006F20D12068B0F8400040F00800C9
:101A70002168A1F840002068B0F8440020F400601C
:101A80002168A1F844002068B0F8400040F004004C
:101A90002168A1F84000206805F01CF8C0F3003070
:101AA00010B9204600F036F9206805F013F800F46C
:101AB0000070B0F5007F0AD12068B0F8440020F42F
:101AC00000702168A1F84400204600F0DAF8206890
:101AD00005F000F800F48070B0F5807F07D1206831
:101AE000B0F8440020F480702168A1F8440010BDD3
:101AF00030B585B00446002514B9012005B030BDCD
:101B000094F8290428B9002084F82804204600F01D
:101B10007DF8032084F82904206804F083FD142252
:101B200004F110016846FEF71FFB94E80F0004F073
:101B300056FC0021206804F0E6FF002525E0012185
:101B400004F1280000EB4510417004F1280000EB7F
:101B50004510057004F1280000EB45108581002137
:101B600004F1280000EB4510C17004F1280000EBDF
:101B70004510016104F1280000EB4510416104F1BA
:101B8000280000EB451081616D1C0F2DD7D3002577
:101B900024E0002104F50A7000EB4510417004F5C3
:101BA0000A7000EB4510057004F1280000EB4510A9
:101BB000858104F50A7000EB4510C17004F50A70C8
:101BC00000EB4510016104F50A7000EB451041611E
:101BD00004F50A7000EB451081616D1C0F2DD8D300
:101BE000142204F110016846FEF7BEFA94E80F00D3
:101BF00004F009FD002084F82400012084F8290461
:101C0000206804F0FDFC002078E7000038B50446A9
:101C10000D492068884215D100BF0C48C06940F4C6
:101C200000000A49C8610846C06900F4000000903D
:101C300000BF00BF002211461420FFF7EAFC142069
:101C4000FFF7DAFC38BD0000005C004000100240E5
:101C500070B504460125A068022801D0FEF7C8FC33
:101C60002946D4F85C0403F05FFFD4F85C0403F069
:101C700021FF70BD10B50446D4F85C0403F03CFFAE
:101C800010BD10B50446D4F85C0403F03CFF10BD51
:101C900070B504460D4600BF94F82804012801D110
:101CA000022070BD012084F8280400BF84F824506D
:101CB0002946206804F02AFF00BF002084F8280489
:101CC00000BF00BFEDE710B5044604F22C41D4F884
:101CD0005C0403F040FF10BD10B5044600BF94F84B
:101CE0002804012801D1022010BD012084F8280415
:101CF00000BF01212046FFF7FEFC206804F07DFCB8
:101D0000206804F0D3FE00BF002084F8280400BF40
:101D100000BFE9E710B50446D4F85C0403F074FF93
:101D2000A06928B10348006840F006000149086036
:101D300010BD000010ED00E001200149086270476D
:101D400000000E422DE9F04385B0064644A30FCBB8
:101D500001AC0FC446A0006800904FF000080025B9
:101D600000270024A146042E36D004DC012E3BD0EF
:101D7000022E6FD162E0082E32D0102E6AD13D487B
:101D80004468006800F0807000B301A8C4F3834188
:101D9000475C04F4803070B136484068C0F340407E
:101DA0001DF8008004F4803040B13348B0FBF8F0F7
:101DB00000FB07F502E0314807FB00F52D484068BD
:101DC00000F48000B0F5800F01D1A94603E068005F
:101DD0000321B0FBF1F93EE000F0E8F981463AE07A
:101DE00000F0E4F9814636E02248046A04F44070C9
:101DF000B0F5807F05D104F0020010B14FF4004926
:101E00001BE004F44070B0F5007F07D11948406A28
:101E100000F0020010B149F640490EE004F44070B1
:101E2000B0F5407F07D11348006800F4003010B1CE
:101E30004FF2244901E04FF000090CE000F0A6F950
:101E40000C494968C1F38131491C4900B0FBF1F9E3
:101E500001E0FFE700BF00BF484605B0BDE8F083E2
:101E600002030405060708090A0B0C0D0E0F1010DB
:101E7000010200000010024000127A0000093D003B
:101E8000F8B5044600260025207800F0010000285F
:101E90006BD000274348C06900F0805070B900BF84
:101EA0004048C06940F080503E49C8610846C0695A
:101EB00000F08050009000BF00BF01273A48006842
:101EC00000F48070B0B93848006840F4807036493A
:101ED0000860FFF71BFB064606E0FFF717FB801BB9
:101EE000642801D90320F8BD2F48006800F48070F1
:101EF0000028F2D02B48006A00F440752DB3A0886A
:101F000000F44070A84220D02648006A20F44075B2
:101F1000012026490860002008602248056205F07B
:101F2000010090B1FFF7F2FA064608E0FFF7EEFA7B
:101F3000801B41F28831884201D90320D3E7194838
:101F4000006A00F002000028F0D01648006A20F471
:101F500040706168084313490862012F04D10846A4
:101F6000C06920F08050C86100BF207800F00200F6
:101F7000022807D10B48406820F44040A16808437C
:101F800008494860207800F01000102807D1054863
:101F9000406820F4800061690843024948600020DD
:101FA000A1E70000001002400070004040044242DF
:101FB00070B504460D4600266D48006800F0070025
:101FC000A8420ED26A48006820F0070028436849FA
:101FD00008600846006800F00700A84201D0012010
:101FE00070BD207800F0020002281DD1207800F09A
:101FF0000400042805D15F48406840F4E0605D4972
:102000004860207800F00800082805D15948406849
:1020100040F46050574948605648406820F0F0004E
:10202000A168084353494860207800F00100002867
:102030005DD06068012806D14E48006800F4003089
:1020400090B90120CCE76068022806D149480068B1
:1020500000F0007040B90120C2E74648006800F077
:10206000020008B90120BBE74248406820F00300A5
:10207000616808433F494860FFF748FA06466068D0
:10208000012810D108E0FFF741FA801B41F28831A6
:10209000884201D90320A3E73648406800F00C00CD
:1020A0000428F0D123E06068022810D108E0FFF78F
:1020B0002DFA801B41F28831884201D903208FE735
:1020C0002C48406800F00C000828F0D10FE008E030
:1020D000FFF71CFA801B41F28831884201D90320A6
:1020E0007EE72448406800F00C000028F0D120482A
:1020F000006800F00700A8420ED91D48006820F0D3
:10210000070028431A4908600846006800F00700E5
:10211000A84201D0012063E7207800F004000428E1
:1021200007D11448406820F4E060E1680843114991
:102130004860207800F00800082808D10D48406861
:1021400020F46050216940EAC1000A49486000F06B
:102150002DF808494968C1F30311074A515CC8408A
:10216000064908600020FFF7F7F9002038E7000073
:102170000020024000100240D08B0008AC0000207C
:102180000148006870470000AC00002000B5FFF770
:10219000F7FF04494968C1F3C221034A515CC840B2
:1021A00000BD000000100240E08B0008F0B585B0D3
:1021B0000FF26C0C9CE8E01001A8A0E8E0101CA550
:1021C0002D68009500210022002300240020194DD5
:1021D000696801F00C05F5B1042D02D0082D19D164
:1021E00001E0154819E001ADC1F38346AC5D01F48F
:1021F000803555B10F4D6D68C5F340451DF805207C
:102200000D4D6543B5FBF2F302E00C4D04FB05F305
:10221000184602E000BF084800BF00BF05B0F0BD8F
:1022200002030405060708090A0B0C0D0E0F101017
:10223000010200000010024000127A0000093D0077
:10224000F8B504460025207800F00100002878D079
:10225000F848406800F00C0004280CD0F5484068AD
:1022600000F00C00082811D1F248406800F48030DA
:10227000B0F5803F0AD1EF48006800F40030002834
:102280005FD0606800285CD10120F8BD00BF6068A5
:10229000B0F5803F06D1E748006840F48030E5495A
:1022A000086028E0606858B9E248006820F480308F
:1022B000E04908600846006820F4802008601AE0C1
:1022C0006068B0F5A02F0BD1DA48006840F4802098
:1022D000D84908600846006840F4803008600AE089
:1022E000D448006820F48030D2490860084600686D
:1022F00020F48020086000BF606888B1FFF706F90D
:10230000054606E0FFF702F9401B642801D90320C7
:10231000BBE7C848006800F400300028F2D010E0A5
:10232000FFF7F4F8054606E0FFF7F0F8401B6428D5
:1023300001D90320A9E7BF48006800F40030002855
:10234000F2D1207800F00200022857D1B948406845
:1023500000F00C0050B1B748406800F00C000828AD
:1023600018D1B448406800F4803098B9B14800688A
:1023700000F0020020B12069012801D0012084E78B
:10238000AC48006820F0F800616940EAC100A94942
:10239000086033E02069E8B10120A7490860FFF731
:1023A000B5F8054606E0FFF7B1F8401B022801D951
:1023B00003206AE79F48006800F002000028F2D07E
:1023C0009C48006820F0F800616940EAC100994922
:1023D000086013E0002098490860FFF797F8054669
:1023E00006E0FFF793F8401B022801D903204CE7D1
:1023F0009048006800F002000028F2D1207800F038
:10240000080008282DD1A069B8B101208B490860C7
:10241000FFF77CF8054606E0FFF778F8401B022836
:1024200001D9032031E78348406A00F00200002808
:10243000F2D0012001F0D4FC13E000207F490860B5
:10244000FFF764F8054606E0FFF760F8401B022836
:1024500001D9032019E77748406A00F002000028FC
:10246000F2D1207800F00400042873D100267148CE
:10247000C06900F0805070B900BF6E48C06940F07C
:1024800080506C49C8610846C06900F080500090D7
:1024900000BF00BF01266A48006800F48070B0B930
:1024A0006748006840F4807065490860FFF72EF8BF
:1024B000054606E0FFF72AF8401B642801D90320EF
:1024C000E3E65F48006800F480700028F2D000BFA7
:1024D000E068012806D15748006A40F001005549DC
:1024E000086227E0E06858B95248006A20F001000D
:1024F000504908620846006A20F00400086219E0AA
:10250000E06805280BD14B48006A40F004004949B7
:1025100008620846006A40F0010008620AE0454887
:10252000006A20F00100434908620846006A20F072
:102530000400086200BFE068A0B1FEF7E7FF0546AF
:1025400009E0FEF7E3FF401B41F28831884202D9DF
:1025500003209AE622E03748006A00F002000028D3
:10256000EFD012E0FEF7D2FF054608E0FEF7CEFFFF
:10257000401B41F28831884201D9032085E62D486D
:10258000006A00F002000028F0D1012E05D1294890
:10259000C06920F080502749C86100BFE069C8B316
:1025A0002448406800F00C00082860D0E069022848
:1025B00048D1002020490866FEF7A8FF054606E03E
:1025C000FEF7A4FF401B022801D903205DE619484D
:1025D000006800F000700028F2D1206AB0F5803F5A
:1025E00007D11448406820F40030A168084311491D
:1025F0004860D4E9080108430E49496821F4741180
:1026000008430C49486001200B490866FEF77EFF2D
:10261000054607E02DE0FEF779FF401B022801D9AF
:10262000032032E60348006800F000700028F2D072
:102630001FE00000001002400000424280044242BD
:102640000070004000200C490866FEF75FFF054659
:1026500006E0FEF75BFF401B022801D9032014E6C9
:102660000648006800F000700028F2D101E0012067
:102670000BE6002009E60000000042420010024084
:1026800070B5044600250CB9012070BD607C20B9EE
:1026900000202074204600F05BF802206074204681
:1026A00000F060F918B1042060740120EDE72046C5
:1026B00001F0B5FB18B1042060740120E5E7206843
:1026C000406820F0070021684860A06828B11F48D2
:1026D000006820F001001D4908601C48001F0068C8
:1026E00020F46070A16808431849091F08606068F9
:1026F000401C08B1656809E00120FFF723FB05468F
:102700001DB9042060740120BFE76D1E2068806839
:1027100020F00F0040EA1540216888602068C068FA
:1027200065F30F002168C860204601F095FB18B1E1
:10273000042060740120A8E70021E1730121617386
:10274000A1730120607400209FE70000306C0040FE
:1027500038B504460B492068884212D1FFF7ECFADD
:1027600000BF0948C06940F000600749C8610846D9
:10277000C06900F00060009000BF00BF0120034965
:10278000086038BD00280040001002403C0442426E
:102790002DE9F04704460D46904600260027B14635
:1027A00004B115B90120BDE8F08700BF207C0128E5
:1027B00001D10220F7E70120207400BF02206074DD
:1027C000B8F1000F06D1E978E17369786173A978EF
:1027D000A1730BE0E87801F017FBE073687801F073
:1027E00013FB6073A87801F00FFBA073A27B617BE1
:1027F000E07B01F074FB2073207B2870204601F001
:1028000054FB06464FF46160B6FBF0F9B9F1180FBE
:102810002FD91820B9FBF0F000EB4000C000C0EB4E
:102820004011C1EB0020A6EB00163146204601F016
:10283000AFFB38B10420607400BF0020207400BFDB
:102840000120B0E7204601F024FB0746781C80B148
:10285000B7420ED20B4807443946204601F081FBAF
:1028600038B10420607400BF0020207400BF012034
:1028700099E70120607400BF0020207400BF00BFF2
:1028800091E70000805101002DE9F04704460D4614
:1028900090460026002704B115B90120BDE8F08755
:1028A00000BF207C012801D10220F7E7012020741D
:1028B00000BF02206074B8F1000F0BD128784FF4EC
:1028C000616148436978C1EB011100EB8100A9788F
:1028D000461812E0287801F097FA4FF4616100FB86
:1028E00001F9687801F090FAC0EB001009EB80095B
:1028F000A87801F089FA09EB00063146204601F07C
:1029000047FB38B10420607400BF0020207400BF72
:102910000120C3E72068406820F005002168486076
:10292000204601F0B6FA0746781C80B1B7420ED2B5
:102930000B4807443946204601F013FB38B1042008
:10294000607400BF0020207400BF0120A6E70120B2
:10295000607400BF0020207400BF00BF9EE700002D
:102960008051010070B5044600250CB9012070BDEE
:102970002068406820F0080021684860FEF7C6FD26
:10298000054607E0FEF7C2FD401BB0F57A7F01D98E
:102990000320ECE72068406800F008000028F1D030
:1029A0000020E4E770B58AB004460D4600260320F7
:1029B00084F83400606C032820D0B5F5805F04D122
:1029C000A06B40F08050A0631CE0B5F5006F07D10C
:1029D000204602F0E4F80646A06B3043A06311E005
:1029E0003DB9204602F0A6F80646A06B3043A0632E
:1029F00008E0A06B40F00060A06303E0A06B40F033
:102A00008050A063A06B40B140F2FF502168886302
:102A1000012084F834000AB070BD60680490A0689A
:102A20000590E0680690079560690890A069099094
:102A300007A807C88DE80700206804A90EC901F09F
:102A4000E8FA012084F834000020E4E730B50346BA
:102A50000022586E020E90090870C2F3830048707D
:102A600002F003008870586EC0F30742CA70B3F8D2
:102A70006400C0F307220A7193F864204A71986ECB
:102A8000020E4FF6FF7000EA0210C880986EC0F385
:102A90000742C88840EA1210C88002F00F0008728E
:102AA0006820C05AC0F30722D0094872C2F38010D0
:102AB0008872C2F34010C872C2F30010087300207D
:102AC0004873586C00283ED19007000D08616820BB
:102AD000C25C086940EA82000861D86E020E08698B
:102AE00040EA92100861C2F3C200087502F00700C4
:102AF0004875D86EC0F3074250098875C2F382004A
:102B0000C8759007400F08766C20C05AC0F30722A2
:102B1000087E40EAD21008760869401C58650C7E91
:102B2000586DA41C0125A540684358650C7A012006
:102B3000A0409865D3E91504640A6043D8654FF452
:102B400000741C6630E0586C012821D16820C25CFA
:102B50009006800A0861D86E020E086940EA0220D9
:102B60000861D86EC0F307420869104308616C2001
:102B7000C05AC0F307220869441C4FF48060A4FBCC
:102B800000045865D8654FF400749C651C660BE022
:102B900040F2FF501C68A063986B40F0805098632F
:102BA000012083F8340030BDC2F3801001F8190F02
:102BB0009006400E48706C20C25C487840EAD21003
:102BC000487002F07F008870186F020ED009C8703C
:102BD000C2F341100871C2F3820048719007000FE0
:102BE0008871186FC0F30742887940EA92108871A3
:102BF000C2F34010C8710020087202F00100487250
:102C00007020C05AC0F30722D0098872C2F3801026
:102C1000C872C2F340100873C2F300104873C2F3C5
:102C20008100887302F00300C8737020C25C5008F2
:102C300008740120487419390020B4E70246506C2A
:102C40000860906C4860D06C8860106DC860506DF2
:102C50000861906D4861D06D8861106EC861002078
:102C60007047F8B504460426002500200090694608
:102C7000204601F046FF054615B1A06B2843A0632E
:102C80000098C0F343263046F8BD10B504460CB991
:102C9000012010BD94F8340020B900202077204690
:102CA00000F050F8032084F83400204600F008F8C3
:102CB0000020A0632063012084F834000020E8E7AE
:102CC00030B589B00446002500200390049005909B
:102CD00006900790C320089006A807C88DE8070053
:102CE000206803A90EC901F094F900201449086076
:102CF000206801F0A8F901201149A039C1F8A0000D
:102D00000220FEF71FFA204601F084FE054645B179
:102D1000012084F83400A06B2843A063012009B08F
:102D200030BD204601F0F8FD05463DB1012084F894
:102D30003400A06B2843A0630120F0E70020EEE7F9
:102D4000A000304210B586B00446002002900390E7
:102D5000049005902149206888423CD100BF20485A
:102D6000406940F480601E4948610846406900F4AB
:102D70008060019000BF00BF00BF0846806940F03E
:102D8000100088610846806900F01000019000BFC3
:102D900000BF00BF0846806940F0200088610846F7
:102DA000806900F02000019000BF00BF4FF4F85090
:102DB0000290022003900320059002A90948FEF723
:102DC000F3F904200290022003900320059002A949
:102DD0000548FEF7E9F906B010BD0000008001408B
:102DE0000010024000100140001401402DE9F04F96
:102DF00087B004468A4690461E46DDF8409000257E
:102E0000FEF784FB0090AB465746BAF1000F07D19E
:102E1000A06B40F00060A063012007B0BDE8F08F18
:102E200094F8340001287DD10020A06308EB06014E
:102E3000E06D814205D9A06B40F00070A0630120D5
:102E4000EBE7032084F8340000202168C862606C3E
:102E5000012801D04FEA48284FF40071206801F0A2
:102E600051F9054655B140F2FF5021688863A06BC7
:102E70002843A063012084F83400CEE74FF0FF30F0
:102E80000190700202909020039002200490002094
:102E900005900120069001A9206801F090F8012E0C
:102EA00007D9022020634146206801F097F90546C2
:102EB00006E0012020634146206801F0ACF9054698
:102EC00055B140F2FF5021688863A06B2843A0638E
:102ED000012084F83400A0E72AE02068406B00F469
:102EE000004068B14FF0000B06E0206801F0B0F838
:102EF00047F82B000BF1010BBBF1080FF5D320377E
:102F0000B9F1000F05D0FEF701FB0099401A4845C2
:102F10000ED340F2FF5021688863A06B40F0004060
:102F2000A06300E082E0012084F83400032074E70D
:102F30002068406B40F22A3108400028CDD020683C
:102F4000406B00F48070A0B1012E12D9606C032890
:102F50000FD0206801F026FA054655B140F2FF5027
:102F600021688863A06B2843A063012084F83400A3
:102F700053E72068406B00F0080058B140F2FF5062
:102F800021688863A06B40F00800A063012084F8EA
:102F9000340042E72068406B00F0020058B140F274
:102FA000FF5021688863A06B40F00200A0630120FD
:102FB00084F8340031E72068406B00F0200058B1FD
:102FC00040F2FF5021688863A06B40F02000A063AE
:102FD000012084F8340020E719E0206801F038F877
:102FE00038603F1DB9F1000F05D0FEF78FFA009948
:102FF000401A48450BD340F2FF5021688863A06B0C
:1030000040F00040A063012084F8340005E7206808
:10301000406B00F400100028DFD140F2FF5021681F
:103020008863012084F834000020F6E6A06B40F0AD
:103030000050A0630120F0E62DE9F04F87B0044670
:10304000884617461E46DDF840B00025FEF75EFABA
:103050000090A946C246B8F1000F07D1A06B40F01E
:103060000060A063012007B0BDE8F08F94F8340041
:1030700001287DD10020A063B919E06D814205D9F6
:10308000A06B40F00070A0630120ECE7032084F8FF
:10309000340000202168C862606C012800D07F02E3
:1030A0004FF40071206801F02DF8054655B140F24B
:1030B000FF5021688863A06B2843A063012084F837
:1030C0003400D0E7012E07D920202063394620683C
:1030D00001F086F9054606E0102020633946206895
:1030E00001F09BF9054655B140F2FF502168886315
:1030F000A06B2843A063012084F83400B3E74FF0AD
:10310000FF30019070020290902003900020049004
:1031100005900120069001A9206800F050FF2AE0E8
:103120002068406B00F4804070B14FF0000906E069
:103130000AEB8901206800F0A3FF09F10109B9F148
:10314000080FF5D30AF1200ABBF1000F05D0FEF7F6
:10315000DDF90099401A58450DD340F2FF5021681F
:103160008863A06B2843A063012084F8340000E04A
:103170005EE0032077E72068406B40F21A31084098
:103180000028CDD02068406B00F48070A0B1012EE3
:1031900012D9606C03280FD0206801F003F90546AE
:1031A00055B140F2FF5021688863A06B2843A063AB
:1031B000012084F8340056E72068406B00F00800D6
:1031C00058B140F2FF5021688863A06B40F00800BE
:1031D000A063012084F8340045E72068406B00F0CC
:1031E000020058B140F2FF5021688863A06B40F0A4
:1031F0000200A063012084F8340034E72068406BAB
:1032000000F0100058B140F2FF5021688863A06BB5
:1032100040F01000A063012084F8340023E740F25E
:10322000FF5021688863012084F8340000201AE7E9
:10323000A06B40F00050A063012014E770B5044675
:103240002546681EB0F1807F01D301200FE0681E83
:103250004FF0E02148610F214FF0FF3000F01CFBE0
:1032600000204FF0E021886107200861002070BD38
:1032700070477047024600BF92F83C00012801D118
:1032800002207047012082F83C0000BF022082F833
:103290003D001068406820F07000136858601068A6
:1032A00040680B681843136858601068806820F005
:1032B000800013689860106880684B681843136832
:1032C0009860012082F83D0000BF002082F83C0099
:1032D00000BF00BFD5E710B504460CB9012010BDF2
:1032E00094F83D0028B9002084F83C00204600F006
:1032F0000DF8022084F83D00211D206801F05CFEDD
:10330000012084F83D000020E9E7000038B50446BC
:103310000D492068884215D100BF0C48C06940F0B3
:1033200010000A49C8610846C06900F0100000900A
:1033300000BF00BF002211463620FEF76AF9362092
:10334000FEF75AF938BD000000100040001002409E
:103350000146022081F83D000868006840F0010045
:103360000A681060012081F83D0000207047014686
:103370000868C06840F001000A68D060086800680A
:1033800040F001000A68106000207047014608689C
:10339000C06820F001000A68D06000BF0868006AB9
:1033A00041F21112104050B90868006A92101040A2
:1033B00028B90868006820F001000A68106000BFA2
:1033C00000207047704710B5044620680069C0F3BC
:1033D0004000D8B12068C068C0F34000B0B16FF0C1
:1033E000020021680861012020772068806900F0D0
:1033F000030018B12046FFF7E5FF05E0204600F086
:10340000ADF8204600F0ABF8002020772068006976
:10341000C0F38000D8B12068C068C0F38000B0B1AC
:103420006FF004002168086102202077206880691D
:1034300000F4407018B12046FFF7C4FF05E02046B5
:1034400000F08CF8204600F08AF8002020772068F1
:103450000069C0F3C000D8B12068C068C0F3C000E4
:10346000B0B16FF00800216808610420207720685F
:10347000C06900F0030018B12046FFF7A3FF05E084
:10348000204600F06BF8204600F069F80020207715
:1034900020680069C0F30010D8B12068C068C0F38C
:1034A0000010B0B16FF0100021680861082020778B
:1034B0002068C06900F4407018B12046FFF782FF11
:1034C00005E0204600F04AF8204600F048F80020C9
:1034D00020772068006900F0010058B12068C068BA
:1034E00000F0010030B16FF0010021680861204652
:1034F00000F036F820680069C0F3C01058B12068A9
:10350000C068C0F3C01030B16FF08000216808615E
:103510002046FFF7ADFE20680069C0F3801058B167
:103520002068C068C0F3801030B16FF0400021689F
:103530000861204600F015F820680069C0F34010CB
:1035400058B12068C068C0F3401030B16FF020005F
:10355000216808612046FFF78CFE10BD7047704758
:103560007047704710B5012210210248FDF7C8FFCF
:1035700010BD00000010014000BFFEE730B50B4653
:10358000002100BF16E00A24B4EB107F05D93024D7
:1035900004EB107403F8114005E0412404EB1074AF
:1035A0000A3C03F81140000100254C00641C1D5525
:1035B0004C1CE1B29142E6DB30BD00000EB50020AC
:1035C000009001900290174817490860811516482D
:1035D00081600021C16041614FF46021C161002020
:1035E00011494860022110480161FDF785F908B1D1
:1035F000FCF7FEFF01200090019007200290694631
:103600000948FDF7C5F808B1FCF7F2FF102000905B
:103610000220019069460448FDF7BAF808B1FCF7AA
:10362000E7FF0EBD002401406803002008B500BF7D
:103630000A48406940F0010008494861084640696D
:1036400000F00100009000BF00BF002211460B20D7
:10365000FDF7DFFF0B20FDF7CFFF08BD0010024094
:1036600010B503490348FCF7C4FF0349087010BDB7
:1036700038000020948C00083700002000B585B089
:103680000020019002900390049000BF2D488069B3
:1036900040F010002B4988610846806900F0100056
:1036A000009000BF00BF00BF0846806940F02000C6
:1036B00088610846806900F02000009000BF00BFCC
:1036C00000BF0846806940F00400886108468069B0
:1036D00000F00400009000BF00BF002201211A4842
:1036E000FDF70EFF002210211848FDF709FF012009
:1036F00001900290002003900220049001A912483A
:10370000FDF752FD1020019001200290002003904F
:103710000220049001A90D48FDF746FD20200190EC
:103720000B4802900020039001A90848FDF73CFDDA
:10373000002211461720FDF76CFF1720FDF75CFFF4
:1037400005B000BD0010024000080140001001401B
:10375000000011101CB50020019000901748184976
:1037600008604FF0FF304860002115488160FEF787
:1037700087FF08B1FCF73CFF00208DF804008DF8AE
:1037800005008DF80600012201A90D48FFF77CF81D
:1037900008B1FCF72DFF01208DF800008DF8010025
:1037A0008DF8020000208DF80300012269460448CC
:1037B000FEF7EEFF08B1FCF71BFF1CBD0028004020
:1037C000DC0300200648074908600020486000210B
:1037D00004488160C16001614161032181617047DA
:1037E00000800140F00300201CB5002000900190F3
:1037F0000E480F49086047F6FF40486000210C481A
:1038000081606421C16000218161FFF764FD08B11E
:10381000FCF7EEFE2020009000200190694604484D
:10382000FFF728FD08B1FCF7E3FE1CBD00100040C7
:103830007404002010B500220D490E4801F0B7FFB6
:1038400008B1FCF7D5FE0C490A4802F013FA08B19A
:10385000FCF7CEFE0949074801F0EAFC08B1FCF785
:10386000C7FE044802F0CEFA08B1FCF7C1FE10BD55
:103870003C00002050250020C00000208C000020CB
:1038800000BFFEE77047000002480068C0F3022056
:10389000704700000CED00E010B5002807DA0A07B9
:1038A000140E054A00F00F031B1FD45403E00A074F
:1038B000130E024A135410BD18ED00E000E400E0BE
:1038C0002DE9FC4105460024002700260020019038
:1038D00000900CE2BDF8040000F00F06002E7DD130
:1038E000BDF8040000F0100088BB2868008848F686
:1038F0000F7108402968088005F128042868B0F88D
:103900005010207801EBC000801C296801F580610F
:1039100031F81000C0F30900E061E1696069084412
:10392000606100212846FDF7E7FE95F82400002895
:10393000CFD0A0690028CCD195F8240040F08000B9
:103940002968A1F84C00002085F82400CFE1FFE7AA
:1039500005F50A74286800880090BDF8000000F49E
:10396000006018B32868B0F85010207801EBC00050
:10397000801D296801F5806131F81000C0F309004D
:10398000E061A18B8BB2A28805F22C41286803F07C
:10399000A6F828680088C0F30E0048F68F7108402A
:1039A000296808802846FEF78EF9A0E1BDF80000DE
:1039B00000F4004000288CD028680088C0F30E0076
:1039C00048F68F710840296808802868B0F85010C0
:1039D000207801EBC000801D296800E055E001F56A
:1039E000806131F81000C0F30900E061E06960B166
:1039F000B4F81CC01FFA8CF3A2886169286803F030
:103A00006EF8E16960690844606100212846FDF7AD
:103A100081FE2A6802F580622868B0F85000801D97
:103A200002EB400122693E2A10D92269C2F34F10ED
:103A3000227C02F01F020AB9421E90B24FF6FF72BA
:103A400002EA802242F400420A600DE02269C2F3D9
:103A50004F00227C02F001020AB1421C90B24FF6E4
:103A6000FF7202EA80220A60296809884BF68F7289
:103A700001EA020080F4805080F4005040F40041DC
:103A800041F080012A68118031E17100286830F826
:103A900011000090BDF8000000F4004000287CD028
:103AA0007100286830F81100C0F30E0048F68F71DD
:103AB00008407200296821F8120005F50A7000EB31
:103AC0004614A07AA8B92868B0F85010207801EB05
:103AD000C000801D296801F5806131F81000C0F335
:103AE0000907EFB3A28861693B46286802F0F7FF37
:103AF00044E021784900286830F8110000F4804043
:103B0000A8B12868B0F85010207801EBC000801CE4
:103B1000296801F5806131F81000C0F30907DFB1B1
:103B2000E28861693B46286802F0D9FF14E0286802
:103B3000B0F85010207801EBC000801D296801F515
:103B4000806131F81000C0F309072FB12289616943
:103B50003B46286802F0C3FF21784900286800E04E
:103B60000CE030F8110048F68F71084048F2C001AF
:103B7000084322785200296821F81200E06938448D
:103B8000E061606938446061A06910B12069B842A1
:103B900004D921782846FDF7BDFD05E021782846A7
:103BA000D4E90523FDF76CFEBDF8000000F08000AD
:103BB00000287CD005F1280000EB4614710028682D
:103BC00030F8110048F60F7108407200296821F89A
:103BD0001200A07AD0B92868B0F85010207801EB14
:103BE000C000801C296801F5806131F81000C0F325
:103BF0000900E061E069E8B3B4F81CC01FFA8CF377
:103C0000A2886169286802F088FF4EE021784900A7
:103C1000286830F8110000F04000D0B12868B0F8F2
:103C20005010207801EBC000801C296801F58061EC
:103C300031F81000C0F30900E061E06928B3B4F87E
:103C40001CC01FFA8CF3E2886169286802F065FFE6
:103C50001BE02868B0F85010207801EBC000801DF0
:103C6000296801F5806131F81000C0F30900E061B6
:103C7000E06900E019E040B1B4F81CC01FFA8CF311
:103C800022896169286802F048FF21784900286884
:103C900030F8110048F68F7108404CF2800108435B
:103CA00022785200296821F81200286800E01EE0FE
:103CB000B0F85010207801EBC000801C296801F595
:103CC000806131F81000C0F30900E061E1696069CA
:103CD00008446061A06920B921782846FDF70CFDF1
:103CE00005E021782846D4E90523FDF727FE28685A
:103CF000B0F84400019000F4004000287FF4EAADE1
:103D0000BDE8FC812DE9F04781468846002001E0AE
:103D1000411C88B2B8F800108142F9DA41464846A1
:103D200003F033F80746B80004F09AFC054615B9CD
:103D3000FF20BDE8F08700241BA14846FCF74EFA9F
:103D4000064608E02046641C45F8206016A10020C5
:103D5000FCF744FA0646002EF4D1002419E013497A
:103D6000096851F83400FCF723FA82460F4A1268BA
:103D700052F8341052462868FCF721FA40B90B4833
:103D8000006800EBC400294642683846904704E0CA
:103D9000641C06488088A042E1DC00BF284604F08D
:103DA0000FFA0020C5E70000200000000C000020F2
:103DB00070473EB504466946204604F07BFB054645
:103DC000684600F001F83EBD38B504462046FCF7D1
:103DD000EFF900906946204600F0BCFF38BD0000B6
:103DE00008B508490968C9084FF47A72B1FBF2F1C5
:103DF0004143009100BF00BF00994A1E0092002974
:103E0000F9D108BDAC000020014600BF080900EB55
:103E10008000420001F00F001044C0B2704770B53E
:103E200004460025FDF772FB054607E0FDF76EFB33
:103E3000401BB0F57A7F01D9032070BD206840682F
:103E400000F020000028F1D02068406840F0100009
:103E5000216848600020F0E770B50446002520681E
:103E6000406820F0100021684860FDF74FFB0546D0
:103E700007E0FDF74BFB401BB0F57A7F01D903202B
:103E800070BD2068406800F020000028F1D00020BC
:103E9000F6E70146002200230868006A82B208683B
:103EA000406A83B243EA0240704730B501460022BF
:103EB0000023002400200D68AD69AAB20D68ED69E9
:103EC000ACB20D68AD69ABB29A4205D00D68ED6930
:103ED00063F31F45284601E044EA024030BDF0B5D7
:103EE00004460B460021002504F5FA61032B1BD282
:103EF000C3EBC30000EB03100926B0FBF6F010443F
:103F0000001D4618481E06EB90066427B0FBF7F02C
:103F1000361A481EBF00B0FBF7F030440726B0FB4E
:103F2000F6F706FB17051AE0C3EBC30000EB03101E
:103F30000926B0FBF6F01044001D084400EB910088
:103F40006426B1FBF6F6801B4FF4C876B1FBF6F69B
:103F50003044801E0726B0FBF6F706FB1705E8B2D3
:103F6000F0BD70B504460D4600262046FFF757FF0A
:103F700008B101260AE0280C21680862A8B221686D
:103F800048622046FFF768FF00B10126304670BD49
:103F900070B504460D4600262046FFF740FF08B1E5
:103FA00001260AE0280C21688861A8B22168C8614E
:103FB0002046FFF751FF00B10126304670BD10B515
:103FC000024600230868506248689062D1E9020402
:103FD00020430C6920434C6920430343D06A20F0FE
:103FE000F7001843D062002010BD01460869C0B236
:103FF00070470146086800F00300704708B50246A4
:104000000020009002F1140008440090009800681D
:1040100008BD0FB410B504460021DDE903021043CA
:10402000059A1043069A1043079A1043089A1043C2
:104030000143606847F6FF629043084360600020D8
:1040400010BC5DF814FB0146032008600020704797
:104050000146D1F88000704710B502460023086879
:104060009060D1E901042043CC6820430C692043CF
:104070000343D0686FF30B001843D060002010BDDD
:1040800002460868C2F880000020704770B586B00C
:1040900005460C46002601943720029040200390EC
:1040A000002004904FF48060059001A92846FFF796
:1040B000D3FF41F288323721284600F0EBF906465B
:1040C000304606B070BD000070B586B005460C469F
:1040D00000260B48204301902920029040200390A5
:1040E000002004904FF48060059001A92846FFF756
:1040F000B3FF284600F0CEFA0646304606B070BD43
:104100000000108070B586B005460C46002601946C
:104110001020029040200390002004904FF4806013
:10412000059001A92846FFF797FF41F28832102138
:10413000284600F0AFF90646304606B070BD70B5AF
:1041400086B005460C4600260194062002904020C9
:104150000390002004904FF48060059001A9284648
:10416000FFF77AFF41F288320621284600F092F9E3
:104170000646304606B070BD30B585B00446002511
:10418000002000900190029003904FF48060049012
:1041900069462046FFF760FF204600F05BF90546C0
:1041A000284605B030BD30B585B0044600254FF433
:1041B000D5700090082001904020029000200390CC
:1041C0004FF48060049069462046FFF745FF204683
:1041D00000F0E0FA0546284605B030BD70B586B05F
:1041E00005460C46002601941220029040200390C0
:1041F000002004904FF48060059001A92846FFF745
:104200002BFF41F288321221284600F043F906467E
:10421000304606B070BD70B586B005460C46002627
:1042200001941120029040200390002004904FF44C
:104230008060059001A92846FFF70EFF41F2883201
:104240001121284600F026F90646304606B070BD1A
:10425000F0B585B0064614461D4600270094072099
:10426000019040200290002003904FF48060049061
:1042700069463046FFF7F0FE41F2883207213046AA
:1042800000F008F90746384605B0F0BD30B585B0F6
:10429000044600250020009002200190C0200290DA
:1042A000002003904FF48060049069462046FFF799
:1042B000D3FE204600F0C0F90546284605B030BDC3
:1042C00070B586B005460C46002601940920029080
:1042D000C0200390002004904FF48060059001A955
:1042E0002846FFF7B9FE284600F0A6F906463046F4
:1042F00006B070BD30B585B00446002500200090A2
:104300003320019040200290002003904FF4806001
:10431000049069462046FFF79FFE41F28832332120
:10432000204600F0B7F80546284605B030BD70B508
:1043300086B005460C46002601940D2002904020D0
:104340000390002004904FF48060059001A9284656
:10435000FFF782FE41F288320D21284600F09AF8DC
:104360000646304606B070BD70B586B005460C46B0
:10437000002600200190032002904020039000209E
:1043800004904FF48060059001A92846FFF764FE71
:1043900022460321284600F0A5F90646304606B01D
:1043A00070BD000030B585B00446002500200090A7
:1043B0000C20019040200290002003904FF4806078
:1043C000049069462046FFF747FE044A0C21204628
:1043D00000F060F80546284605B030BD00E1F5055F
:1043E00070B586B005460C4600260194192002904F
:1043F00040200390002004904FF48060059001A9B4
:104400002846FFF729FE41F288321921284600F09C
:1044100041F80646304606B070BD70B586B0054618
:104420000C460026019418200290402003900020A2
:1044300004904FF48060059001A92846FFF70CFE18
:1044400041F288321821284600F024F8064630460A
:1044500006B070BD01460E480068C0084FF47A737C
:10446000B0FBF3F041F2883300FB03F200BF101EF3
:10447000A2F1010202D14FF000407047486B00F0FA
:1044800080000028F3D040F2FF5088630020F4E75A
:10449000AC0000202DE9F04105460E461746644861
:1044A0000068C0084FF47A71B0FBF1F000FB07F828
:1044B00000BFB8F10000A8F1010803D14FF000409F
:1044C000BDE8F081686B00F045000028F1D0686B12
:1044D00000F0040010B10420A863F1E7686B00F05D
:1044E000010010B10120A863EAE72846FFF77DFD2F
:1044F000B04201D00120E3E740F2FF50A863002161
:104500002846FFF77BFD04464A48204008B90020B2
:10451000D6E704F00040B0F1004F02D14FF0007038
:10452000CEE704F08040B0F1804F01D14020C7E7D2
:1045300004F00050B0F1005F01D18020C0E704F02A
:104540008050B0F1805F02D14FF48070B8E704F082
:104550000060B0F1006F02D14FF40070B0E704F0DA
:104560008060B0F1806F02D14FF48060A8E704F062
:104570008070B0F1807F02D14FF40060A0E704F4B6
:104580000000B0F5000F02D14FF4805098E704F41A
:104590008000B0F5800F02D14FF4005090E704F492
:1045A0000010B0F5001F02D14FF4804088E704F4FA
:1045B0008010B0F5801F02D14FF4004080E704F472
:1045C0008020B0F5802F02D14FF4003078E704F45A
:1045D0000030B0F5003F02D14FF4802070E704F4C2
:1045E0008030B0F5803F02D14FF4002068E704F43A
:1045F0000040B0F5004F02D14FF4801060E704F4A2
:104600008040B0F5804F02D14FF4001058E704F419
:104610000050B0F5005F02D14FF4800050E704F085
:104620000800082801D100054AE74FF4803047E729
:10463000AC00002008E0FFFD014615480068C008F6
:104640004FF47A73B0FBF3F041F2883300FB03F2CE
:1046500000BF101EA2F1010202D14FF000407047CE
:10466000486B00F045000028F3D0486B00F00400D0
:1046700010B104208863F2E7486B00F0010010B12C
:1046800001208863EBE740F2FF5088630020E6E7F3
:10469000AC000020014612480068C0084FF47A734D
:1046A000B0FBF3F041F2883300FB03F200BF101EB1
:1046B000A2F1010202D14FF000407047486B00F0B8
:1046C00045000028F3D0486B00F0040010B104202E
:1046D0008863F2E740F2FF5088630020EDE70000B6
:1046E000AC0000202DE9F04104460E46174628484C
:1046F0000068C0084FF47A71B0FBF1F041F28831E4
:1047000000FB01F800BFB8F10000A8F1010803D1D7
:104710004FF00040BDE8F081606B00F045000028DC
:10472000F1D0606B00F0040010B10420A063F1E749
:10473000606B00F0010010B10120A063EAE72046A1
:10474000FFF753FCB04201D00120E3E740F2FF50F5
:10475000A06300212046FFF751FC054605F46040A8
:1047600018B9280C38800020D4E705F48040B0F553
:10477000804F02D14FF40050CCE705F40040B0F573
:10478000004F02D14FF48050C4E74FF48030C1E7AE
:10479000AC000020014614480068C0084FF47A734A
:1047A000B0FBF3F041F2883300FB03F200BF101EB0
:1047B000A2F1010202D14FF000407047486B00F0B7
:1047C00045000028F3D0486B00F0040018B14020E9
:1047D00088630420F1E7486B00F0400008B14020F6
:1047E00088630020E9E70000AC0000202DE9F041DB
:1047F00088B004460E460025FCF788FE8046002758
:1048000000200090019008212068FFF77BFC0546FE
:104810001DB1284608B0BDE8F0815022125B11049A
:104820002068FFF733FC05460DB12846F2E74FF04C
:10483000FF30029008200390302004900220059061
:10484000002006900120079002A92068FFF7B7FB1F
:104850002068FFF74FFD05460DB12846DAE713E063
:104860002068406B00F4001028B12068FFF7F0FBCF
:104870004DF827007F1CFCF749FEA0EB0800401C08
:1048800010B94FF00040C5E72068406B40F22A4164
:1048900008400028E4D02068406B00F0080018B100
:1048A000082021688863B5E72068406B00F00200AB
:1048B00018B1022021688863ACE72068406B00F0E3
:1048C000200018B1202021688863A3E740F2FF5040
:1048D0002168886300980006009901F47F4140EA4E
:1048E0000120009901F47F0140EA1120009940EA7B
:1048F0001160706001980006019901F47F4140EA5F
:104900000120019901F47F0140EA1120019940EA58
:104910001160306000207DE730B58FB0044600257F
:10492000012003902068FFF764FB18B94FF0806006
:104930000FB030BD606C03281BD02068FFF7A6FCC9
:1049400005460DB12846F3E700212068FFF756FB26
:10495000606704212068FFF751FBA06708212068E9
:10496000FFF74CFBE0670C212068FFF747FB802135
:104970000851606C032807D003A92068FFF7F4FCF6
:1049800005460DB12846D3E7606C032820D0BDF85A
:104990000C1021655022125B11042068FFF790FC77
:1049A00005460DB12846C3E700212068FFF726FB26
:1049B000606604212068FFF721FBA06608212068BB
:1049C000FFF71CFBE0660C212068FFF717FB206750
:1049D00004212068FFF712FB010DE16404A92046C1
:1049E000FEF734F85020005B01040A4600232068DB
:1049F000FFF72EFC05460DB1284699E7D4E90412CD
:104A0000A069CDE90012029094E80F00FFF701FBC6
:104A100000208DE7F8B5044600200090002600270E
:104A200000252068FFF7A8FB05460DB12846F8BD14
:104A30002068FFF7B8FB05466DB30021A16425E0AF
:104A40000098411C00914FF6FF71884202D14FF04F
:104A50008070ECE700212068FFF718FB054615B1D0
:104A60004FF08050E3E700212068FFF72DFB05465B
:104A700015B14FF08050DAE700212068FFF7BEFA49
:104A80000646012080EAD67080F00107002FD7D0BB
:104A90000020606433E00121A16424E00098411CFF
:104AA00000914FF6FF71884202D14FF08070BEE74F
:104AB00000212068FFF7EAFA05460DB12846B6E75F
:104AC0004FF080412068FFF7FFFA05460DB12846F8
:104AD000ADE700212068FFF791FA0646012080EA41
:104AE000D67080F00107002FD8D006F08040B0F1DA
:104AF000804F02D10120606401E00020606400204A
:104B000095E770B504460D46002615B94FF00060D4
:104B100070BD5022125B11042068FFF708FC0646A6
:104B20000EB13046F4E700212068FFF767FA2860ED
:104B30000020EDE77CB504460020009001900025A0
:104B400000212068FFF75AFA00F00070B0F1007FF2
:104B500002D14FF400607CBD69462046FFF746FE57
:104B600005460DB12846F6E7019800F4803098B16B
:104B70005022125B11042068FFF788FA05460DB138
:104B80002846E8E700212068FFF7D9FA05460DB16D
:104B90002846E0E70020DEE74FF08060DBE77CB5E9
:104BA0000446002000900190002500212068FFF7B6
:104BB00025FA00F00070B0F1007F02D14FF40060E0
:104BC0007CBD69462046FFF711FE05460DB128461B
:104BD000F6E7019800F4802098B15022125B11048E
:104BE0002068FFF753FA05460DB12846E8E7022191
:104BF0002068FFF7A4FA05460DB12846E0E700203B
:104C0000DEE74FF08060DBE710B50446012007497E
:104C10000870FBF703FC28B90448007820F0010075
:104C2000024908700148007810BD0000CA01002048
:104C3000F0B589B007460D461446012615480078A0
:104C400000F0010010B1032009B0F0BD35B1012D15
:104C500006D0022D0BD0032D17D10FE0002616E051
:104C600001A8FBF7C5FB0798206000260FE001A80C
:104C7000FBF7BEFB08982080002608E001A8FBF7A0
:104C8000B7FB08982060002601E0042600BF00BFA3
:104C90003046D9E7CA0100202DE9F04781460C468D
:104CA00015461E460127DFF830800C4B3246294658
:104CB0002046FBF7D1FB68B907E0B8F10000A8F186
:104CC000010802D10120BDE8F087FBF79BFB00281B
:104CD000F3D100273846F6E7A086010000E1F5058C
:104CE00010B50446012007490870FBF78BFB28B973
:104CF0000448007820F0010002490870014800785B
:104D000010BD0000CA0100202DE9F04781460C4685
:104D100015461E460127DFF830800C4B32462946E7
:104D20002046FBF7B1FB68B907E0B8F10000A8F135
:104D3000010802D10120BDE8F087FBF763FB0028E2
:104D4000F3D100273846F6E7A086010000E1F5051B
:104D50007047000030B50246002011E0135C0A4C99
:104D60000A4D2D886355094B1B885B1C074C23801B
:104D700023461B88802B01DB00232380431C98B231
:104D80000B688342EAD230BDD80100200000002029
:104D900070B505460E4601212348FCF7ADFB002403
:104DA0003DE02248007820B1012810D0032834D1FA
:104DB00029E0285D3E2803D102201C49087005E047
:104DC000285D2F2802D101201849087025E0285DB0
:104DD0001749184A12888854285D0A2803D10320ED
:104DE000124908700EE013480088802805DB002077
:104DF0000E4908700F49088004E00E480088401CE6
:104E00000C49088009E00B490948FEF77BFF0020A8
:104E1000084908800549087000BF00BF641C30685D
:104E2000A042BED270BD0000000801400400002076
:104E3000580200200200002010B5054801880548EE
:104E4000FBF780FB10B900200149088010BD00006D
:104E500000000020D801002010B504480068401C64
:104E600002490860FCF758FB10BD00001400002048
:104E700000B595B028210BA8FBF78FF9142106A8DF
:104E8000FBF78BF918216846FBF787F909200B908F
:104E90004FF480300C9000200D9001200F90119065
:104EA00002201290C10313914FF4E01114910BA84A
:104EB000FDF7C6F908B1FBF79BFB0F200690022017
:104EC0000790002008904FF48060099000200A901D
:104ED000022106A8FDF76CF808B1FBF789FB132047
:104EE00000904FF400700190800102900020059026
:104EF0006846FCF7C5FF08B1FBF77AFB15B000BDAB
:104F00001148006840F001000F49086008464068F9
:104F10000E4908400C494860084600680C490840A2
:104F2000094908600846006820F4802008600846A7
:104F3000406820F4FE0048604FF41F008860C803FA
:104F40000449086070470000001002400000FFF8AC
:104F5000FFFFF6FE08ED00E010B51348FEF733FA48
:104F600020211248FCF7C0FA28B90F48FEF70EFAC4
:104F700000200F4908800E480088322802D1FEF731
:104F8000F1FA00BF00BF0A480088401C08490880A9
:104F900001210848FCF7B0FA05480088FEF709FF30
:104FA000FFF74AFF10BD000074040020001001400C
:104FB0009C00002000080140002202681F4B98421C
:104FC0000ED01F4B98420BD0B0F1804F08D01D4B34
:104FD000984205D01C4B984202D01C4B984203D1FA
:104FE00022F070024B681A43144B98420ED0144BB7
:104FF00098420BD0B0F1804F08D0124B984205D0A8
:10500000114B984202D0114B984203D122F44072C6
:10501000CB681A4322F080024B691A4302608B6806
:10502000C3620B688362054B984202D0044B9842DE
:1050300001D10B690363012343617047002C0140D8
:10504000003401400004004000080040000C004013
:1050500002460B46D2F81812D2F8180218B10020F6
:10506000C1F8140270470220FCE770B504460E46F2
:10507000D4F818523146204600F088FCC5F80C02DE
:10508000D4F8180248B1D5F80402D4F81C12CA6842
:1050900005F503719047002070BD0220FCE770B554
:1050A00004460E4600258121204600F0ACFB01217C
:1050B000204600F0A8FB8221204600F0A4FBD4F893
:1050C000180250B1D4F81C1248688047D4F818026E
:1050D00000F0A8FF0020C4F81802284670BD70B583
:1050E0000546D5F81842D5F81C0278B194F80002AC
:1050F000FF280BD094F8012294F80002D5F81C1276
:105100008B6821469847FF2084F80002002070BD7C
:1051100001460A200880014870470000B4000020C2
:105120000146432008800148704700003C010020F0
:10513000014643200880014870470000F800002025
:10514000014643200880014870470000800100208C
:105150002DE9F04104460F460026207C70B94FF43B
:10516000007302228121204600F074FC4FF400738A
:1051700002220121204600F06DFC0BE040230222B8
:105180008121204600F066FC4023022201212046B6
:1051900000F060FC082303228221204600F05AFC24
:1051A0004FF4077000F040FFC4F81802D4F818025A
:1051B00008B901261CE0D4F81852D4F81C1208686B
:1051C00080470020C5F81402C5F81802207C40B9B9
:1051D0004FF4007301212046D5F8042200F052FC60
:1051E00006E0402301212046D5F8042200F04AFCC5
:1051F0003046BDE8F08170B50446D4F81852D4F8B2
:10520000180298B1207C40B94FF400730121204668
:10521000D5F8042200F036FC06E0402301212046A8
:10522000D5F8042200F02EFC002070BD0220FCE71F
:105230000246022011B1C2F81C120020704702463B
:10524000D2F81832C3F804120020704710B5034694
:10525000D3F81842C4F80812C4F81022002010BD78
:1052600070B505460C46D5F81862207800F060004D
:1052700040B3202835D1E088E0B1207800F08000EC
:1052800060B1E2886078D5F81C128B683146984787
:10529000E2883146284600F0B9F812E0607886F8D6
:1052A0000002A07986F80102E2883146284600F023
:1052B0008CF806E06078D5F81C1200228B68214635
:1052C00098470FE060780A2802D00B2807D105E044
:1052D00001220649284600F099F800E000BF00BF0F
:1052E00000BF00BF00BF002070BD0000C301002050
:1052F00070B50546D5F81842D5F8180290B1D4F823
:10530000140268B90120C4F81402B4F8100283B280
:1053100081212846D4F8082200F080FC002070BDCE
:105320000120FCE70220FAE770B504460D46D4F8E8
:1053300014022946426820469047002070BD70B58F
:1053400004460D4694F8FC01022802D0032811D12E
:1053500000E000BF688801280BD10020C4F80402D7
:10536000D4F814022946826820469047204600F06F
:105370005EF804E02946204600F01BF800BF00BF9D
:1053800070BD70B506460C4615462B4622460021D8
:10539000304600F077FB002070BD70B506460C4625
:1053A00015462B4622460021304600F037FC0020EF
:1053B00070BD70B504460D468021204600F002FC09
:1053C0000021204600F0FEFB70BD70B504460E467D
:1053D00015460320C4F8F4014FF484700551001DF4
:1053E00005512B4632460021204600F04BFB0020A1
:1053F00070BD10B504460520C4F8F40100231A4618
:105400001946204600F03EFB002010BD70B5044652
:105410000E4615460220C4F8F401A561E5612B464D
:1054200032460021204600F0F9FB002070BD10B587
:1054300004460420C4F8F40100231A461946204605
:1054400000F0ECFB002010BD70B505460C462DB9F0
:105450002246064906A000F06BF904E02246034903
:1054600003A000F065F9014870BD0000F42D002094
:1054700043444320436F6E66696700000246122072
:1054800008800148704700005800002070B50546AC
:105490000C462DB92246064906A000F049F904E061
:1054A0002246034903A000F043F9014870BD000003
:1054B000F42D002043444320496E74657266616395
:1054C0006500000002460420088001487047000083
:1054D0006C00002070B505460C462246024903A028
:1054E00000F026F9004870BDF42D00204E45424FD3
:1054F000524F4E0070B505460C462DB9224606495E
:1055000006A000F015F904E02246034903A000F0CC
:105510000FF9014870BD0000F42D00204368696256
:10552000695361740000000070B505460C461A20EE
:105530002080FBF791F8014870BD0000700000204A
:1055400070B504460D46E888012804D02946204657
:10555000FFF72FFF1BE094F8FC01022802D003287C
:105560000FD108E00020A060012204F108012046CC
:10557000FFF74CFF0AE00122211D2046FFF746FFFE
:1055800004E029462046FFF714FF00BF00BF70BDAE
:10559000F8B504460E467088001208287FD2DFE86E
:1055A00000F07E040C207E7E5F6D207CD4F810120B
:1055B0000A6869469047054676E0207C40B9D4F8F1
:1055C0001402816A6846884705460221697007E02F
:1055D000D4F81402C16A68468847054602216970FA
:1055E00062E0B078062834D2DFE800F0030B131B2A
:1055F000232B207CD4F810124A6869469047054650
:105600002CE0207CD4F810128A6869469047054641
:1056100024E0207CD4F81012CA68694690470546F9
:105620001CE0207CD4F810120A69694690470546B0
:1056300014E0207CD4F810124A6969469047054668
:105640000CE0207CD4F810128A6969469047054620
:1056500004E031462046FFF7ACFEF8BD00BF23E072
:10566000207C30B9D4F81402416B6846884705465F
:105670001AE031462046FFF79CFEEEE7207C48B951
:10568000D4F81402016B6846884705460721697003
:105690000AE004E031462046FFF78BFEDDE73146A5
:1056A0002046FFF786FED8E700BFBDF8000088B1AE
:1056B000F08878B1F088BDF80010884202DDBDF8AE
:1056C000000000E0F0880090BDF800202946204648
:1056D000FFF79CFE00BFC0E70146002002E0421C2D
:1056E000D0B2491C0A78002AF9D1704770B5044637
:1056F0000D4694F8FC01022802D0032811D100E0E5
:1057000000BF0120E060D4F8040218B1E06840F066
:105710000200E060022204F10C012046FFF776FE51
:1057200004E029462046FFF744FE00BF00BF70BDDD
:105730002DE9F04104460D4617460026FCB12046EF
:10574000FFF7CAFF022101EB400038803A7830466B
:10575000711CCEB22A5403223046711CCEB22A5498
:105760000AE014F8012B3046711CCEB22A540022F4
:105770003046711CCEB22A5420780028F1D1BDE801
:10578000F0810146002031B1012906D0022906D05E
:10579000032908D105E0002007E0022005E00120F0
:1057A00003E0022001E0022000BF00BF704770B597
:1057B00004460D4616460CB9022070BDD4F81402FA
:1057C00010B10020C4F814020DB1C4F81052012029
:1057D00084F8FC012670204600F0E2F80020ECE797
:1057E0002DE9F04104460D46002600272946D4F84D
:1057F0002002FBF7CFFF06463046FFF7C2FF074601
:105800003846BDE8F0812DE9F04104460D460026FA
:1058100000272946D4F82002FBF78AFF06463046C7
:10582000FFF7AFFF07463846BDE8F0812DE9F041AC
:1058300004460E461746002E54D104F11405D4F840
:10584000F401022843D1D5E90201884210D9D5E9F3
:105850000201401AA860288982B239462046FFF723
:105860009CFD00231A461946204600F00BF92EE055
:10587000E9686868B0FBF1F201FB1200B8B9E968A9
:105880006868884213D36868D4F8F81188420ED249
:10589000002211462046FFF780FD0020C4F8F801E1
:1058A00000231A461946204600F0ECF80FE0D4F821
:1058B0001402C06840B194F8FC01032804D1D4F864
:1058C0001402C168204688472046FFF792FD94F8ED
:1058D0000002012814D1204600F0D4F9002084F8F9
:1058E00000020DE0D4F81402406948B194F8FC01BC
:1058F000032805D1D4F81402314642692046904766
:105900000020BDE8F0812DE9F04105460E4617461E
:105910005EBB05F58274D5F8F401032833D1D4E9D0
:105920000201884210D9D4E90201401AA060D4E9EA
:105930000201884201D2A06800E0E06882B23946E4
:105940002846FFF71EFD1EE0D5F81402006940B19D
:1059500095F8FC01032804D1D5F814020169284602
:1059600088472846FFF763FD0DE0D5F814028069EB
:1059700048B195F8FC01032805D1D5F81402314649
:105980008269284690470020BDE8F08170B5044642
:105990000D462946D4F82002FBF72DFF70BD00000C
:1059A00010B504461D48C0F85C44C4F820021C48E9
:1059B0001A490860082048600221184881600021C7
:1059C0008161C1610162FCF793F808B1FAF710FE3A
:1059D00004F508741823002211462068FBF76CFEBA
:1059E0005823002280212068FBF766FEC023002296
:1059F00081212068FBF760FE4FF4887300220121AB
:105A00002068FBF759FE2068A4F508744FF48073F2
:105A100000228221FBF750FE002010BD74270020D9
:105A2000005C004010B50246D2F8203201F0800040
:105A3000802807D101F07F0403F1280000EB441017
:105A4000807810BD01F07F0403F50A7000EB44106C
:105A50008078F6E72DE9F04704460F4615461E46C6
:105A60004FF00008C1462B4632463946D4F8200292
:105A7000FBF7CBFE80464046FFF783FE8146484653
:105A8000BDE8F0872DE9F04704460D4616461F464F
:105A90004FF00008C1463B4632462946D4F8200262
:105AA000FBF7EEFE80464046FFF76BFE8146484618
:105AB000BDE8F08710B50446402300221146204679
:105AC000FFF7C8FF40214FF48870015140230022A6
:105AD00080212046FFF7BEFF40212162012084F88B
