:020000040800F2
:10000000D046002045010008BD5D0008D946000823
:10001000B95D0008CD070008AD91000800000000A0
:1000200000000000000000000000000085730008D0
:10003000E108000800000000D9620008957400087B
:100040005F0100085F0100085F0100085F01000810
:100050005F0100085F0100085F0100085F01000800
:100060005F0100085F0100085F010008A5080008A3
:100070005F0100085F0100085F0100085F010008E0
:100080005F0100085F0100085F0100085F010008D0
:10009000159100085F0100085F010008350A00089B
:1000A0005F0100085F0100085F0100085F010008B0
:1000B0005F0100085F0100085F010008ED460008CD
:1000C000DD4600085F0100085F0100085F010008CD
:1000D0005F0100085F0100085F0100085F01000880
:1000E0005F0100085F0100085F0100085F01000870
:1000F0005F0100085F0100085F0100085F01000860
:100100005F0100085F0100085F0100085F0100084F
:100110005F0100085F01000895750008E975000897
:100120005F0100085F0100085F0100085F0100082F
:10013000DFF80CD000F09EF9004800477DAB0008C6
:10014000D04600200648804706480047FEE7FEE705
:10015000FEE7FEE7FEE7FEE7FEE7FEE7FEE7FEE777
:100160003D7500083101000840EA01039B0703D0F8
:1001700009E008C9121F08C0042AFAD203E011F8E6
:10018000013B00F8013B521EF9D27047D2B201E0A8
:1001900000F8012B491EFBD270470022F6E710B58C
:1001A00013460A4604461946FFF7F0FF204610BDE5
:1001B000421C10F8011B0029FBD1801A704710B5B2
:1001C000002200E0521C835C8C5CA34201D1002B16
:1001D000F8D1D8B2E1B2401A10BD30B505460020C2
:1001E000034600E05B1C934205D2EC5CC85C201A1D
:1001F00001D1002CF6D130BD70B50F4D00B9286883
:10020000002412E00A4602E09E4203D0521C1378FA
:10021000002BF9D1DAB2224305D02BB124B1002151
:1002200000F8011B04E00446401C0678002EE9D1CA
:100230002860204670BD0000D001002070B5064641
:1002400008F0C6FF046805460A220021304600F087
:10025000A1F82C6070BDF0B480EA0102D40F420016
:10026000B2EB410F02D20246084611464A0042D084
:10027000C30DDDB2C1F3C752AD1A202D35DAC1F37B
:10028000160141F4000204B15242C5F1200602FAFF
:1002900006F12A411044B3EBD05F23D0C4B1012D45
:1002A000A0EBC35009DCF0BC4FF0004202EAC3529D
:1002B000DBB200F5000000F0AEB8400000F1807045
:1002C00000EBC350A0F1807040EAD170490009E012
:1002D000490841EAC071A0EBC35000F50000400896
:1002E00000EBC350F0BC00F08DB86142012202EB7C
:1002F0004101001BF6E7F0BC704781F00041AAE71E
:1003000080F00040A7E730B480EA010202F0004527
:1003100030F0004221F0004013D090B1C30DD40D55
:10032000C2F31601C0F31600E41A41F4000140F4D0
:1003300000027D34914201D3641C00E04900002C8E
:1003400002DA30BC002070474FF4000000239142D5
:1003500001D3891A034340084FEA4101F7D151B153
:10036000914202D14FF0004105E002D24FF001016D
:1003700001E06FF0010103EBC450284430BC00F0F1
:1003800041B8C10F80EAE0700844CA0796230021F3
:1003900000F041B82DE9F04791460F4680460446EB
:1003A000002614F8015B2DB100F076F80068405D7E
:1003B000C007F6D12B2D02D02D2D18D0641E4A4631
:1003C0003946204600F06CF827B13968A14201D1C6
:1003D000C7F8008071054FF002040BD54042002899
:1003E00003DD08F0F5FE0460A007BDE8F08746F4E1
:1003F0008066E4E70028F8DA08F0EAFE04606FF0AF
:100400000040F2E70029A8BF7047401C490008BF20
:1004100020F00100704710B4B0FA80FC00FA0CF034
:1004200050EA010404BF10BC704749B1CCF120046C
:1004300021FA04F411FA0CF118BF012121430843F9
:10044000A3EB0C01CB1D4FEA00614FEA102042BF25
:10045000002010BC704700EBC35010440029A4BF1B
:1004600010BC7047401C490008BF20F0010010BCC0
:1004700070470000064C074D06E0E06840F00103BD
:1004800094E8070098471034AC42F6D3FFF754FEC7
:10049000D8B30008F8B3000800487047BCB30008A0
:1004A0002DE9F05F82460078002715468B460AF159
:1004B0000104B946302801D09DB113E014F8010BB6
:1004C0000127782803D0582801D045B10AE00DB1A2
:1004D000102D07D10027102514F8010B02E0082584
:1004E00000E00A250026B0460EE005FB080005FBEB
:1004F00006F1012701EB10461FFA80F8B6F5803FA0
:1005000000D3B94614F8010B294600F018F800286A
:10051000EBDABBF1000F05D00FB1641E00E05446CA
:10052000CBF80040B9F1000F06D008F051FE0221CF
:100530000160C81EBDE8F09F48EA0640FAE73A2885
:1005400000D2303820F02002412A01D3A2F1370036
:10055000884201D34FF0FF30704770B58C1810F807
:10056000015B15F0070301D110F8013B2A1106D1F8
:1005700010F8012B03E010F8016B01F8016B5B1E12
:10058000F9D12B0705D40023521E0DD401F8013BED
:10059000FAE710F8013BCB1A921C03E013F8015B59
:1005A00001F8015B521EF9D5A142D8D3002070BDDD
:1005B00070B5044600252068806800F00100F0B1A5
:1005C0002068806820F001002168886001F086FAC8
:1005D00005460EE001F082FA401B022809D9A06A04
:1005E00040F01000A062E06A40F00100E0620120EB
:1005F00070BD2068806800F001000028EAD100206A
:10060000F6E770B505466C6AA06A00F05000E0B9E4
:10061000A06A40F40070A0622068806800F4602046
:10062000B0F5602F0DD1E06858B9A06A20F4807051
:10063000A062A06A00F4805018B9A06A40F00100DE
:10064000A062204600F07CFB03E0206A016B284694
:10065000884770BD70B505466C6AA06A40F04000DE
:10066000A062E06A40F00400E062204600F06AFB0D
:1006700070BD70B50446656A284600F062FB70BD27
:1006800038B504460025002000902068806800F0FE
:10069000010080BB2068806840F00100216888600C
:1006A000164800681649B0FBF1F0009002E000988F
:1006B000401E009000980028F9D101F00FFA05467D
:1006C00013E001F00BFA401B02280ED9A06A40F09B
:1006D0001000A062E06A40F00100E06200BF00206C
:1006E00084F8240000BF012038BD2068806800F035
:1006F00001000028E5D00020F6E70000B00000204F
:1007000040420F0010B504462146024803F018FB92
:1007100010BD00004C04002010B5044803F023FB7A
:10072000042801D0012010BD0020FCE74C0400206B
:1007300010B5002400F014F8012801D0012010BDEC
:10074000064803F024FB044634B94FF40061034823
:1007500003F0AAF900B101242046F0E74C04002080
:1007600008B5012000909DF8000008BD2DE9F84370
:1007700004460D4616461F464FF0000833462A46EB
:1007800021460548009703F0B3FB08B14FF001087C
:100790004046BDE8F88300004C0400202DE9F843F2
:1007A00004460D4616461F464FF0000833462A46BB
:1007B00021460548009703F0C1FC08B14FF001083D
:1007C0004046BDE8F88300004C04002000BFFEE76F
:1007D0000346042B15D007DC7BB1012B0ED0022B76
:1007E0000DD0032B12D10BE0202B0BD0212B0AD0E4
:1007F000222B09D0232B09D107E008E007E006E00F
:1008000005E004E003E002E001E000E000BF00BF1B
:10081000002070470020704710B5002204490548A9
:1008200007F03CF80449034807F031F8002010BDF8
:10083000AC38002008260020AC30002070B50446FB
:100840000D462146054807F022F82946204606F0C5
:10085000B9FD024806F0F7FF002070BD0826002011
:100860002DE9F04104460D4600260A48D0F81872DA
:10087000D7F8140210B10120BDE8F0812A462146C4
:10088000044807F00BF8034807F05AF806463046CC
:10089000F2E7000008260020034619609A80002035
:1008A0007047000010B5024800F0E8FC10BD0000E1
:1008B000A003002030B590F840500124AC40C56B37
:1008C0006C60046863604468102C04D10468A26002
:1008D0000468E16003E00468A1600468E26030BD80
:1008E0007047000070B506460D462B48006820F0A2
:1008F0000040294908603DE055F8240027A1FFF792
:100900005EFC28B92448006840F000402249086095
:1009100055F8240022A1FFF752FC28B91E480068B0
:1009200040F080401C49086055F824001DA1FFF7E5
:1009300046FC28B91848006840F0010016490860D4
:1009400055F8240018A1FFF73AFC28B912480068AE
:1009500040F002001049086055F8240013A1FFF789
:100960002EFC28B90C48006840F004000A490860D1
:10097000601C84B2B442BFDD05F0B0FC06480068DC
:1009800000F0004010B90020034908600121084828
:1009900001F09AF8002070BD180000202D630000BF
:1009A0002D6170002D7800002D7900002D7A000057
:1009B00000080140024603480068034B1840014B01
:1009C00018607047180000200000FF7F2DE9F041FB
:1009D00005460E46022D03D04FF0FF30BDE8F081F2
:1009E0007068FFF72BFCC4B2642C00DD6424012C7A
:1009F00000DA01240C4803F083FD0B4803F064FD8A
:100A00000A48006860430A490968B1FBF0F087B200
:100A1000781E0649091D0860034803F046FD024898
:100A200003F034FD0020D9E7100500202814004011
:100A3000B000002010B5202000F098FE10BD7047D7
:100A400030B504460D4600222946204600F002F843
:100A500030BD0000F0B50346012500241148407A5E
:100A600001281CDC00200F4E767A0E4FB855384610
:100A7000467A001D40F82630001F467A083082551D
:100A80003E46707A461C7E72044604F130000870BF
:100A90003A2048702F2088700020C8700025284612
:100AA000F0BD0000C440002070B50A480468001D75
:100AB0000568001D0668344454B1082206492046E2
:100AC00004F0E5FD042204491031284604F0DFFD5E
:100AD00070BD0000E8F7FF1F7A000020F8B504465B
:100AE00000260020009000BF94F82400012801D1C6
:100AF0000220F8BD012084F8240000BF2046FFF743
:100B000057FD0646002E62D1A06A20F4885040F0BE
:100B10000200A062022002F087F930490968B1FBA7
:100B2000F0F04000009002E00098401E0090009815
:100B30000028F9D12046FFF7A3FD2068806840F027
:100B400008002168886000F0C9FF054611E000F048
:100B5000C5FF401B0A280CD9A06A20F0020040F013
:100B60001000A06200BF002084F8240000BF012014
:100B7000BFE72068806800F008000028E7D12068FF
:100B8000806840F004002168886000F0A7FF0546F7
:100B900011E000F0A3FF401B0A280CD9A06A20F046
:100BA000020040F01000A06200BF002084F8240082
:100BB00000BF01209DE72068806800F00400002845
:100BC000E7D1A06A20F0020040F00100A06200BF5F
:100BD000002084F8240000BF30468AE7B0000020DF
:100BE00038B5024600230020009000BF92F8240090
:100BF000012801D1022038BD012082F8240000BF65
:100C00004868072812D21068406B0C79641E04EB08
:100C100084051F24AC40A0430D796D1E05EB8505AE
:100C20000C68AC4020431468606327E048680D28D6
:100C300012D21068006B0C79E41F04EB84051F24AA
:100C4000AC40A0430D79ED1F05EB85050C68AC4069
:100C500020431468206311E01068C06A0C790D3CD1
:100C600004EB84051F24AC40A0430D790D3D05EB3A
:100C700085050C68AC4020431468E06208680A28C7
:100C800012D31068C0680C780A3C04EB44050724B2
:100C9000AC40A0430D780A3D05EB45058C68AC409F
:100CA00020431468E0600FE0106800690C7804EBE2
:100CB00044050724AC40A0430D7805EB45058C683E
:100CC000AC402043146820610868102802D00868EE
:100CD000112827D1174C1068A0421ED110688068D7
:100CE00000F40000F0B91068806840F40000146857
:100CF000A0600868102815D10F4800680F4CB0FBA1
:100D0000F4F000EB80004000009002E00098401EEC
:100D1000009000980028F9D104E0906A40F020008B
:100D20009062012300BF002082F8240000BF184613
:100D300061E7000000240140B000002040420F00A5
:100D400070477047704700002DE9F04104460027C6
:100D500000250026A84614B90120BDE8F081A0684E
:100D600010B1606900B100BFA06A30B90020E06234
:100D700084F82400204600F097F82046FFF718FC7E
:100D80000746A06A00F01000002873D1002F7ED122
:100D9000A06A20F4885040F00200A0623F4AD4E9E3
:100DA0000001904208D1E069B0F5402F02D14FF424
:100DB000002002E0E06900E0E0690143E06841EA08
:100DC00040000643A068B0F5807F02D0A0680128EB
:100DD00002D14FF4807000E00020054360690128D3
:100DE00011D1E06838B9A069401E4FF4006141EAB2
:100DF0004030054307E0A06A40F02000A062E06AAE
:100E000040F00100E0622068406820F46940284317
:100E10002168486020688068214908403043216883
:100E20008860A068B0F5807F02D0A068012802D158
:100E30004FF4807000E00020B0F5807F03D1208A5D
:100E4000401E4FEA00582068C06A20F4700040EA53
:100E500008002168C8622068806812490840B042D2
:100E600009D10020E062A06A20F0020040F00100F9
:100E7000A06211E00BE0A06A20F0020040F0100038
:100E8000A062E06A40F00100E062012704E0A06A8D
:100E900040F01000A062012738465EE7003C0140A8
:100EA000FDF7E1FFFE0E1FFF10B586B004460020DF
:100EB00002900390049005902149206888423DD11A
:100EC00000BF2048806940F400701E4988610846D0
:100ED000806900F40070019000BF00BF00BF0846A9
:100EE000806940F0040088610846806900F00400D1
:100EF000019000BF00BF022002900320039002A9CE
:100F0000114800F041FC1148114908600020486078
:100F100000210F4881608021C16049000161890082
:100F2000416100218161C16100F074FB08B1FFF7EC
:100F300086FD00BF06482062446200BF06B010BDB7
:100F40000024014000100240000801400800024057
:100F5000A00300202DE9F04104460D461646002767
:100F600057492068884203D056492068884205D1F5
:100F70005348001D006800F4702000E000200028A5
:100F80007ED100BF94F82400012802D10220BDE8E0
:100F9000F081012084F8240000BF2046FFF770FB99
:100FA0000746002F6DD1A06A40F60161884340F4E6
:100FB0008070A06243492068884209D14048001DE2
:100FC000006800F4702008B9012002E0002000E071
:100FD000012078B1A06A20F48010A06220684068E7
:100FE00000F4806000B3A06A20F4005040F4805008
:100FF000A06219E0A06A40F48010A0623049206825
:10100000884203D02F492068884205D12C48001D12
:10101000006800F4806000E0002028B1A06A20F49D
:10102000005040F48050A062A06A00F4805020B1CB
:10103000E06A20F00600E06201E00020E06200BF0C
:10104000002084F8240000BF1F48216A88621F48DE
:10105000216AC8621E48216A08636FF00200216895
:1010600008602068806840F4807021688860226889
:1010700002F14C0133462A46206A00F011FB01E0E0
:101080001AE014E02068806800F46020B0F5602F5A
:1010900006D12068806840F4A000216888600CE0D8
:1010A0002068806840F480102168886005E000BFF7
:1010B000002084F8240000E00127384667E700009C
:1010C00000240140002801400306000873060008C0
:1010D0005506000870B50446002594F82100022842
:1010E00003D00420A0630125C1E02068006820F03F
:1010F0000E00216808602068006820F00100216867
:1011000008605C492068884252D95A497839206879
:10111000884201D1012047E056496439206888425D
:1011200001D1102040E0534950392068884201D154
:10113000801539E04F493C392068884201D180143C
:1011400032E04C4928392068884202D14FF480307F
:101150002AE0484914392068884202D14FF48010AF
:1011600022E044492068884201D140041CE0424901
:101170002068884201D1012016E03F4914312068DF
:10118000884201D110200FE03B4928312068884275
:1011900001D1801508E038493C312068884201D1EE
:1011A000801401E04FF480303349091F086051E09A
:1011B000304978392068884201D1012047E02D4923
:1011C00064392068884201D1102040E02949503913
:1011D0002068884201D1801539E026493C392068D1
:1011E000884201D1801432E022492839206888429F
:1011F00002D14FF480302AE01E4914392068884219
:1012000002D14FF4801022E01A492068884201D1AF
:1012100040041CE018492068884201D1012016E0F2
:10122000154914312068884201D110200FE012497D
:1012300028312068884201D1801508E00E493C31F0
:101240002068884201D1801401E04FF480300949C0
:1012500080394860012084F8210000BF002084F814
:10126000200000BF606B10B12046616B88472846A4
:1012700070BD0000800002400804024070B50446C2
:10128000E06B05682068066894F8401004208840E8
:101290002840002875D006F004000028FAD0206805
:1012A000006800F0200028B92068006820F00400E1
:1012B00021680860D5492068884254D9D3497839D3
:1012C0002068884201D1042049E0D049643920686F
:1012D000884201D1402042E0CC4950392068884200
:1012E00001D100153BE0C9493C392068884202D150
:1012F0004FF4804033E0C54928392068884202D144
:101300004FF480202BE0C14914392068884202D173
:101310004FF4800023E0BD492068884201D1C00419
:101320001DE0BB492068884201D1042017E0B8497C
:1013300014312068884201D1402010E0B44928319E
:101340002068884201D1001509E0B1493C3120688C
:10135000884202D14FF4804001E04FF48020AC4934
:10136000091F086054E0A94978392068884201D1F2
:1013700004204AE0A54964392068884202D140200F
:1013800043E04CE0A14950392068884201D1001562
:101390003BE09E493C392068884202D14FF48040AE
:1013A00033E09A4928392068884202D14FF48020DE
:1013B0002BE0964914392068884202D14FF480000E
:1013C00023E092492068884201D1C0041DE0904981
:1013D0002068884201D1042017E08D49143120682B
:1013E000884201D1402010E0894928312068884294
:1013F00001D1001509E086493C312068884202D1BC
:101400004FF4804001E04FF48020804980394860EB
:10141000E06A002802D02046E16A8847F4E094F8A8
:101420004010022088402840002871D006F00200B9
:101430000028FAD02068006800F0200040B9206839
:10144000006820F00A0021680860012084F821006B
:101450006E492068884254D96C497839206888429E
:1014600001D1022049E0694964392068884201D1EC
:10147000202042E0654950392068884201D140155A
:101480003BE062493C392068884202D14FF4005069
:1014900033E05E4928392068884202D14FF4003099
:1014A0002BE05A4914392068884202D14FF40010C9
:1014B00023E056492068884201D180041DE0544948
:1014C0002068884201D1022017E051491431206878
:1014D000884201D1202010E04D49283120688842FF
:1014E00001D1401509E04A493C312068884202D1C7
:1014F0004FF4005001E04FF400304549091F0860E7
:1015000054E0424978392068884202D102204AE0FA
:1015100057E03E4964392068884201D1202042E0EA
:101520003A4950392068884201D140153BE037499B
:101530003C392068884202D14FF4005033E03349EF
:1015400028392068884202D14FF400302BE02F491F
:1015500014392068884202D14FF4001023E02B494F
:101560002068884201D180041DE029492068884212
:1015700001D1022017E0264914312068884201D1A8
:10158000202010E0224928312068884201D14015EE
:1015900009E01F493C312068884202D14FF40050D5
:1015A00001E04FF4003019498039486000BF002045
:1015B00084F8200000BFA06A30B32046A16A8847A3
:1015C00022E094F84010082088402840E0B106F05E
:1015D0000800C8B12068006820F00E00216808608B
:1015E00094F8401001208840E16B48600120A0631E
:1015F00084F8210000BF002084F8200000BF206B89
:1016000010B12046216B884770BD00008000024069
:10161000080402400146002209B9012070471E4B10
:10162000086898420BD21D4B0868C01A1423B0FBFF
:10163000F3F08000086419480838C8630AE0164BC4
:101640000868C01A1423B0FBF3F080000864124845
:101650000838C863022081F821000868026843F650
:10166000F0708243D1E901031843CB6818430B693A
:1016700018434B6918438B691843CB6918430243DD
:101680000868026000208863012081F821000020A2
:1016900081F8200000BFC1E70804024008000240B2
:1016A0002DE9F04104460D4616461F464FF000084E
:1016B00000BF94F82000012802D10220BDE8F0818B
:1016C000012084F8200000BF94F8210001282CD1CB
:1016D000022084F821000020A0632068006820F028
:1016E0000100216808603B46324629462046FFF744
:1016F000E1F8E06A30B12068006840F00E0021682F
:1017000008600BE02068006820F004002168086091
:101710002068006840F00A002168086020680068BE
:1017200040F001002168086006E000BF002084F856
:10173000200000BF4FF002084046BFE770B50446E6
:1017400000F0CCF906462546681C10B10448007824
:10175000054400BF00F0C2F9801BA842FAD370BD57
:10176000AC000020202800D000BF704710B5044610
:1017700004480068204020B1024804602046FFF77A
:10178000F1FF10BD140401402DE9F8470246002482
:10179000002000258446002700237BE14FF001084C
:1017A00008FA03F4D1F8008008EA0400A0427DD1D1
:1017B000DFF8ECA2D1F80480A8EB0A09D0453AD0B2
:1017C00014DCB8F1030F50D009DCB8F1000F31D0B0
:1017D000B8F1010F1CD0B8F1020F49D120E0B8F1E7
:1017E000110F18D0B8F1120F42D11EE0B9F5881FC1
:1017F00025D006DCB9F5803F20D0B9F5801F37D160
:101800001AE0B9F5001F18D0B9F5041F30D117E060
:10181000D1F80CC02DE0D1F80C8008F1040C28E0C0
:10182000D1F80C8008F1080C23E0D1F80C8008F105
:101830000C0C1EE000BF00BF00BF00BF00BF00BF18
:10184000D1F80880B8F1000F02D14FF0040C0BE082
:10185000D1F80880B8F1010F03D14FF0080C1461E2
:1018600002E04FF0080C546103E04FF0000C00E080
:1018700000BF00BFFF2801D8904601E002F1040834
:101880004646FF2802D84FEA830803E0A3F1080880
:101890004FEA88084746D6F800804FF00F0909FA4A
:1018A00007F928EA09080CFA07F900E07AE048EAA3
:1018B0000908C6F80080D1F8048008F08058B8F113
:1018C000805F6FD100BFDFF8DC81D8F8188048F066
:1018D0000108DFF8D091C9F81880C846D8F81880F8
:1018E00008F00108CDF8008000BF00BF4FEAB9380A
:1018F0004FEA930958F829504FEA83784FEA18794C
:101900004FF00F0808FA09F825EA0805DFF8988172
:10191000424502D14FF0000824E0DFF890814245B3
:1019200002D14FF001081DE0DFF88481424502D169
:101930004FF0020816E0DFF87C81424502D14FF0FB
:1019400003080FE0DFF87081424502D14FF0040830
:1019500008E0DFF86881424502D14FF0050801E058
:101960004FF006084FEA83794FEA197908FA09F827
:1019700048EA0505DFF848814FEA930948F82950FD
:10198000D1F8048008F48038B8F5803F0BD1DFF837
:101990003481D8F8008048EA0008DFF82891C9F8B7
:1019A00000800AE075E0DFF81C81D8F8008028EAA2
:1019B0000008DFF81091C9F80080D1F8048008F41D
:1019C0000038B8F5003F0ED1DFF8F88008F10408C0
:1019D000D8F8008048EA0008DFF8E89009F1040927
:1019E000C9F800800DE0DFF8DC8008F10408D8F8C1
:1019F000008028EA0008DFF8CC9009F10409C9F852
:101A00000080D1F8048008F48018B8F5801F0ED14A
:101A1000DFF8B08008F10808D8F8008048EA00082C
:101A2000DFF8A09009F10809C9F800800DE0DFF89F
:101A3000948008F10808D8F8008028EA0008DFF848
:101A4000849009F10809C9F80080D1F8048008F4ED
:101A50000018B8F5001F0ED1DFF8688008F10C08F7
:101A6000D8F8008048EA0008DFF8589009F10C091E
:101A7000C9F800800DE0DFF84C8008F10C08D8F8B8
:101A8000008028EA0008DFF83C9009F10C09C9F849
:101A900000805B1C102BFFF481AEBDE8F8870000CE
:101AA000000011100010024000080140000C01402D
:101AB000001001400014014000180140001C0140CA
:101AC0000800014000040140C2684A40C2607047FB
:101AD0000AB1016101E00B0403617047014800682D
:101AE00070470000A4000020704770472DE9F047C0
:101AF00004464FF00008C1460027BA4620684569F1
:101B0000206846683448284080B106F4807068B187
:101B1000206C40F0010020646FF4807021684861FF
:101B20002068006840F400402168086005F48130B6
:101B300050B106F4807038B1206C40F0020020648F
:101B40006FF400702168486105F4823078B306F4C0
:101B5000807060B394F83E80B4F82A9094F83D7099
:101B6000D4F830A0B8F1200F0FD1B9F1000F0CD18B
:101B7000212F06D0292F04D0282F06D1BAF1210F0A
:101B800003D1204603F088FB11E0206C40F00400F4
:101B9000206494F83E00102805D12068006840F4C5
:101BA0000070216808606FF480602168486105F466
:101BB000843050B106F4807038B1206C40F00800D9
:101BC00020646FF4006021684861206C10B12046E9
:101BD00002F0C8FDBDE8F087000101002DE9F041E9
:101BE000064630688769306844693068456896F809
:101BF0003E80B8F1100F02D0B8F1400F58D104F078
:101C0000011030B105F4007018B1304603F083FACA
:101C100013E04E48204030B105F4007018B1304652
:101C200003F04FF909E04948801F204028B105F42E
:101C3000007010B1304603F04BF945483840D8B138
:101C400042487830204050B105F4806038B13F48B8
:101C5000001F204018B9304603F08EF874E03B486E
:101C6000001F204000286FD005F4007000286BD0C2
:101C7000304603F031F867E034483830204050B146
:101C800005F4806038B13148001F204018B9304653
:101C900002F0BBFE58E02D48001F2040002853D022
:101CA00005F4007000284FD0304602F02DFE4BE0C6
:101CB0002648801F204030B105F4007018B130462E
:101CC00003F0CEFA40E021480830204030B105F45E
:101CD000007018B1304603F031FB35E01C48384045
:101CE000C8B11A487830204050B105F4806038B14E
:101CF0001648001F204018B9304603F08EFA23E042
:101D00001248001F2040F8B105F40070E0B13046E1
:101D100003F075FA18E00D483830204050B105F452
:101D2000806038B10948001F204018B9304603F0E0
:101D300042FA09E00548001F204028B105F4007070
:101D400010B1304603F028FABDE8F0810800010028
:101D5000040010007047000070B5044600260025FE
:101D60000CB9012070BD94F83D0028B9002084F81A
:101D70003C00204600F0F6FB242084F83D0020685B
:101D8000006820F001002168086001F071FA054642
:101D90004C496068884206D84B48854201D20120F0
:101DA00007E0002005E04948854201D2012000E01B
:101DB0000020012800D1D5E74548B5FBF0F62068A2
:101DC000466040496068884201D8701C07E04FF4C3
:101DD000967070434FF47A71B0FBF1F0401C2168AB
:101DE000086238496068884214D8681E61684900F2
:101DF000B0FBF1F0401CC0F30B00042801D204201A
:101E00003DE0681E61684900B0FBF1F0401CC0F382
:101E10000B0034E0A06838B9681E616801EB41012D
:101E2000B0FBF1F0401C0AE0681E616801EBC102E2
:101E300002EB0111B0FBF1F0401C40F48040C0F314
:101E40000B0008B901201AE0A06848B9681E616853
:101E500001EB4101B0FBF1F0401CC0F30B000CE0C2
:101E6000681E616801EBC10202EB0111B0FBF1F0E9
:101E7000401CC0F30B0040F4804040F40040216857
:101E8000C861D4E90701084321680860D4E9031058
:101E9000084321688860D4E9050108432168C860C7
:101EA0002068006840F0010021680860002020647C
:101EB000202084F83D000020206384F83E0000BF0D
:101EC00050E70000A086010080841E0000093D004C
:101ED00040420F002DE9FC5F04460F4690461E4627
:101EE0000025A946AA46AB4601200190FFF7F6FD62
:101EF000054694F83D0020287ED11923012260492F
:101F00002046009503F0CDFA10B10220BDE8FC9FF9
:101F100000BF94F83C00012801D10220F6E701201F
:101F200084F83C0000BF2068006800F0010028B978
:101F30002068006840F0010021680860206800689F
:101F400020F4006021680860242084F83D0000200F
:101F500020644C48E06200BF2068006840F4807054
:101F600021680860334600224FF001112046009599
:101F700003F097FA08B10320C8E707F0FE002168D4
:101F80000861FFF7ABFD054620684069C0F34009D2
:101F900020684069C0F3802A94F83DB012E026B171
:101FA000FFF79CFD401BB04202D9A02084F83D0001
:101FB00020684069C0F3400920684069C0F3802A66
:101FC00094F83DB0B9F1000F05D1BAF1000F02D17C
:101FD000BBF1A00FE3D1202084F83D0020684069C8
:101FE000C0F3400028B32068006840F40070216806
:101FF000086000BF002000E03FE0009020684069DA
:10200000009020688069009000BF00BF1923012262
:102010001B492046009503F044FA08B1032075E7F8
:10202000202084F83D0000BF002084F83C0000BF61
:102030006CE72068006840F40070216808606FF465
:10204000806021684861192301220D4920460095CE
:1020500003F027FA08B1032058E70198411C0191C9
:102060004045FFF479AF202084F83D0000BF0020F8
:1020700084F83C0000BF012048E7022046E700004A
:10208000020010000000FFFF70477047704700001B
:102090002DE9F8430446894617469846089E0025D0
:1020A000FFF71CFD054694F83D0020287ED119233A
:1020B0000122C3492046009503F0F3F910B1022034
:1020C000BDE8F88300BF94F83C00012801D102204C
:1020D000F6E7012084F83C0000BF2068006800F0AB
:1020E000010028B92068006840F0010021680860FC
:1020F0002068006820F4006021680860222084F8CD
:102100003D00102084F83E00002020646762A4F89F
:102110002A80AC48E062608D20852B4632464946D5
:10212000204602F0E1FC80B1206C042806D100BFFB
:10213000002084F83C0000BF0120C1E700BF002060
:1021400084F83C0000BF0320BAE7208D88B900BFA7
:10215000002000902068406900902068806900900D
:1021600000BF00BF2068006840F40070216808606C
:102170004BE0208D01281AD12068006820F480608F
:102180002168086072B600BF002000902068406996
:10219000009020688069009000BF00BF2068006840
:1021A00040F400702168086062B62EE005E1208DE1
:1021B000022819D12068006840F400602168086096
:1021C00072B600BF0020009020684069009020682F
:1021D0008069009000BF00BF2068006820F4806024
:1021E0002168086062B610E02068006840F48060F2
:1021F0002168086000BF00200090206840690090BE
:1022000020688069009000BF00BFC7E0208D0328D0
:1022100075D8208D01281AD12A463146204603F070
:10222000D4F930B1206C202801D1032048E70120E7
:1022300046E720680069C1B2626A501C6062117092
:10224000208D401E2085608D401E6085A6E0208D7B
:1022500002282CD1334600225B492046009503F02A
:1022600020F908B103202BE772B62068006840F41B
:1022700000702168086020680069C1B2626A501C61
:1022800060621170208D401E2085608D401E60852B
:1022900062B620680069C1B2626A501C6062117047
:1022A000208D401E2085608D401E608576E033467F
:1022B000002245492046009503F0F3F808B10320B9
:1022C000FEE62068006820F480602168086072B62D
:1022D00020680069C1B2626A501C60621170208D72
:1022E000401E2085608D401E6085334600223649A1
:1022F0002046009503F0D5F810B10320E0E621E078
:102300002068006840F40070216808602068006957
:10231000C1B2626A501C60621170208D401E20851F
:10232000608D401E608562B620680069C1B2626A35
:10233000501C60621170208D401E2085608D401EF3
:1023400060852BE02A463146204603F03EF930B145
:10235000206C202801D10320B2E60120B0E62068DD
:102360000069C1B2626A501C60621170208D401E0B
:102370002085608D401E608520684069C0F3800024
:1023800060B120680069C1B2626A501C606211705D
:10239000208D401E2085608D401E6085208D002888
:1023A0007FF434AF202084F83D00002084F83E0004
:1023B00000BF84F83C0000BF82E6022080E60000F7
:1023C000020010000000FFFF040001002DE9F843A7
:1023D0000446894616461F46DDF820800025FFF793
:1023E0007DFB054694F83D0020287DD1192301226C
:1023F00059492046009503F054F810B10220BDE879
:10240000F88300BF94F83C00012801D10220F6E7D0
:10241000012084F83C0000BF2068006800F0010043
:1024200028B92068006840F0010021680860206831
:10243000006820F4006021680860212084F83D00D5
:10244000102084F83E0000202064666267854348BF
:10245000E062608D20852B4642464946204602F0C8
:10246000DBFB80B1206C042806D100BF002084F87B
:102470003C0000BF0120C2E700BF002084F83C0000
:1024800000BF0320BBE700BF002000902068406928
:10249000009020688069009000BF00BF46E02A4697
:1024A0004146204603F0C8F860B1206C042807D1EB
:1024B0002068006840F400702168086001209EE7F1
:1024C00003209CE7616A481C606208782168086103
:1024D000608D401E6085208D401E208520684069EB
:1024E000C0F3800078B100E034E0208D58B1616A1B
:1024F000481C6062087821680861608D401E608514
:10250000208D401E20852A464146204602F09EFF2F
:1025100060B1206C042807D12068006840F4007086
:102520002168086001206AE7032068E7208D002801
:10253000B5D12068006840F4007021680860202050
:1025400084F83D00002084F83E0000BF84F83C0081
:1025500000BF54E7022052E7020010000000FFFF16
:102560007047704710B586B0044600200290039073
:10257000049005901D492068884235D100BF1C4851
:10258000806940F008001A4988610846806900F0B7
:102590000800019000BF00BFC020029012200390ED
:1025A0000320059002A91348FFF7EEF800BF10487A
:1025B000C06940F400100E49C8610846C06900F4C3
:1025C0000010019000BF00BF002211461F2000F044
:1025D00092F81F2000F082F800221146202000F01F
:1025E0008AF8202000F07AF806B010BD00540040B0
:1025F00000100240000C014070477047034800681B
:10260000034909780844014908607047A400002084
:10261000AC00002010B50848006840F010000649E2
:102620000860032000F0A6F8002000F007F800F092
:102630002BF8002010BD00000020024070B50446B9
:102640000E4800784FF47A71B1FBF0F00C4909683C
:10265000B1FBF0F5284601F073FE08B1012070BD12
:10266000102C07D200222146501E00F044F80548E5
:10267000046001E00120F2E70020F0E7AC00002058
:10268000B0000020A800002008B500BF11488069F4
:1026900040F001000F4988610846806900F00100A0
:1026A000009000BF00BF00BF0846C06940F08050E6
:1026B000C8610846C06900F08050009000BF00BFAC
:1026C00000BF0549486820F0E06040F000704860B5
:1026D00000BF08BD001002400000014000BF00F034
:1026E0001F02012191404209920002F1E022C2F84A
:1026F000001100BF70472DE9F05F80460D46164679
:10270000002703F05DFB074639462A46334601F0B1
:102710000700C0F1070ABAF1040F02D94FF0040A0A
:1027200001E0C0F1070AD14600F1040ABAF1070F2F
:1027300002D24FF0000A01E0A0F1030AD4464FF0A4
:10274000010A0AFA09FAAAF1010A0AEA020A0AFACD
:102750000CFA4FF0010B0BFA0CFBABF1010B0BEA7F
:10276000030B4AEA0B042146404603F031FBBDE867
:10277000F09F000000BF00F00702064B19684FF6FB
:10278000FF031940044B0B4343EA0221014B19603C
:1027900000BF70470CED00E00000FA0570B505467B
:1027A0000C46002104F08000802806D104F07F064A
:1027B00005F1280000EB461103E005F50A7000EB77
:1027C00044111AB9002088728B8004E001208872BD
:1027D000CB80180C0881002070BD704770B504468E
:1027E0000D4604F1280101EB45114A692946D4F848
:1027F0005C0405F043FB70BD70B504460D4604F55E
:102800000A7101EB45114A692946D4F85C0405F0C8
:10281000A2FB70BD70B504460D46002605F0800091
:10282000802806D105F07F0104F1280000EB411655
:1028300005E005F07F0104F50A7000EB411605F094
:102840007F00307005F08000C009707000BF94F800
:102850002804012801D1022070BD012084F8280439
:1028600000BF3146206806F0E6F800BF002084F87B
:10287000280400BF00BFEFE770B504460D460026F0
:1028800005F08000802806D105F07F0104F12800C2
:1028900000EB411603E004F50A7000EB451600203A
:1028A000B07005F07F003070C5F3C010707000BFCD
:1028B00094F82804012801D1022070BD012084F879
:1028C000280400BF3146206806F0E2F900BF00206E
:1028D00084F8280400BF00BFEFE7024601F00F03B1
:1028E00002F50A7000EB4310808B80B270472DE92F
:1028F000F04704460D46174698464FF0000900265B
:1029000005F08000802806D105F07F0104F1280041
:1029100000EB411605E005F07F0104F50A7000EBBD
:10292000411605F07F00307005F08000C00970701E
:10293000376186F8038000BF94F82804012802D18B
:102940000220BDE8F087012084F8280400BF31464A
:10295000206805F097FE00BF002084F8280400BF1F
:102960004846EEE72DE9F04105460E4617469846E3
:10297000002406F07F0105F50A7000EB4114676141
:10298000C4F818800020E061607006F07F002070BD
:1029900006F07F0020B92146286806F016FA03E009
:1029A0002146286806F011FA0020BDE8F08170B5D4
:1029B00004460D46002605F08000802806D105F06B
:1029C0007F0104F1280000EB411603E004F50A70D2
:1029D00000EB45160120B07005F07F003070C5F3A4
:1029E000C010707000BF94F82804012801D10220A3
:1029F00070BD012084F8280400BF3146206806F02D
:102A0000A1F905F07F0020B904F22C41206806F0FE
:102A10003CF900BF002084F8280400BF00BFE7E7AE
:102A20002DE9F04105460E4617469846002406F06B
:102A30007F0105F1280000EB41146761C4F818809C
:102A40000020E0610120607006F07F00207006F039
:102A50007F0020B92146286806F0B7F903E0214637
:102A6000286806F0B2F90020BDE8F08110B50446F0
:102A7000206806F057FB00F40040B0F5004F02D18B
:102A8000204603F0B9F9206806F04CFB00F48060A2
:102A9000B0F5806F0ED12068B0F8440020F480605B
:102AA0002168A1F84400204600F044F900212046A6
:102AB00000F060F9206806F035FB00F48040B0F5C6
:102AC000804F07D12068B0F8440020F4804021688E
:102AD000A1F84400206806F025FB00F40050B0F592
:102AE000005F07D12068B0F8440020F4005021684E
:102AF000A1F84400206806F015FB00F48050B0F502
:102B0000805F1AD12068B0F8400020F004002168EE
:102B1000A1F840002068B0F8400020F008002168CB
:102B2000A1F84000204600F017F92068B0F84400F2
:102B300020F480502168A1F84400206806F0F2FAE1
:102B400000F40060B0F5006F20D12068B0F84000BC
:102B500040F008002168A1F840002068B0F8440067
:102B600020F400602168A1F844002068B0F840001B
:102B700040F004002168A1F84000206806F0D2FA75
:102B8000C0F3003010B9204600F036F9206806F096
:102B9000C9FA00F40070B0F5007F0AD12068B0F8DF
:102BA000440020F400702168A1F84400204600F0A1
:102BB000DAF8206806F0B6FA00F48070B0F5807F8D
:102BC00007D12068B0F8440020F480702168A1F893
:102BD000440010BD30B585B00446002514B901206D
:102BE00005B030BD94F8290428B9002084F82804E1
:102BF000204600F07DF8032084F82904206806F0C0
:102C000039F8142204F110016846FDF7ADFA94E892
:102C10000F0005F00CFF0021206806F09CFA00254B
:102C200025E0012104F1280000EB4510417004F17A
:102C3000280000EB4510057004F1280000EB45105A
:102C40008581002104F1280000EB4510C17004F1DA
:102C5000280000EB4510016104F1280000EB45104D
:102C6000416104F1280000EB451081616D1C0F2DBE
:102C7000D7D3002524E0002104F50A7000EB4510AD
:102C8000417004F50A7000EB4510057004F128004E
:102C900000EB4510858104F50A7000EB4510C1700A
:102CA00004F50A7000EB4510016104F50A7000EBB1
:102CB0004510416104F50A7000EB451081616D1CFF
:102CC0000F2DD8D3142204F110016846FDF74CFAF9
:102CD00094E80F0005F0BFFF002084F824000120D5
:102CE00084F82904206805F0B3FF002078E700008D
:102CF00038B504460D492068884215D100BF0C48FC
:102D0000C06940F400000A49C8610846C06900F47F
:102D10000000009000BF00BF002211461420FFF702
:102D2000EAFC1420FFF7DAFC38BD0000005C00402C
:102D30000010024070B504460125A068022801D0A9
:102D4000FDF77DFE2946D4F85C0405F015FAD4F8A9
:102D50005C0405F0D7F970BD10B50446D4F85C04E6
:102D600005F0F2F910BD10B50446D4F85C0405F086
:102D7000F2F910BD70B504460D4600BF94F8280462
:102D8000012801D1022070BD012084F8280400BF71
:102D900084F824502946206806F0E0F900BF00209E
:102DA00084F8280400BF00BFEDE710B5044604F224
:102DB0002C41D4F85C0405F0F6F910BD10B50446BA
:102DC00000BF94F82804012801D1022010BD012081
:102DD00084F8280400BF01212046FFF7FEFC20688C
:102DE00005F033FF206806F089F900BF002084F861
:102DF000280400BF00BFE9E710B50446D4F85C041E
:102E000005F02AFAA06928B10348006840F00600DE
:102E10000149086010BD000010ED00E001200149EB
:102E20000862704700000E422DE9F04385B0064667
:102E300044A30FCB01AC0FC446A0006800904FF034
:102E40000008002500270024A146042E36D004DC0B
:102E5000012E3BD0022E6FD162E0082E32D0102E10
:102E60006AD13D484468006800F0807000B301A852
:102E7000C4F38341475C04F4803070B13648406845
:102E8000C0F340401DF8008004F4803040B1334866
:102E9000B0FBF8F000FB07F502E0314807FB00F556
:102EA0002D48406800F48000B0F5800F01D1A9469C
:102EB00003E068000321B0FBF1F93EE000F0F8F90F
:102EC00081463AE000F0F4F9814636E02248046A8F
:102ED00004F44070B0F5807F05D104F0020010B119
:102EE0004FF400491BE004F44070B0F5007F07D1B7
:102EF0001948406A00F0020010B149F640490EE05E
:102F000004F44070B0F5407F07D11348006800F426
:102F1000003010B14FF2244901E04FF000090CE0FD
:102F200000F0B6F90C494968C1F38131491C4900E8
:102F3000B0FBF1F901E0FFE700BF00BF484605B074
:102F4000BDE8F08302030405060708090A0B0C0D0F
:102F50000E0F1010010200000010024000127A0053
:102F600000093D00F8B5044600260025207800F051
:102F7000010000286BD000274348C06900F0805052
:102F800070B900BF4048C06940F080503E49C861F8
:102F90000846C06900F08050009000BF00BF0127C4
:102FA0003A48006800F48070B0B93848006840F4CE
:102FB000807036490860FEF791FD064606E0FEF790
:102FC0008DFD801B642801D90320F8BD2F480068BF
:102FD00000F480700028F2D02B48006A00F440759D
:102FE0002DB3A08800F44070A84220D02648006A83
:102FF00020F440750120264908600020086022481E
:10300000056205F0010090B1FEF768FD064608E094
:10301000FEF764FD801B41F28831884201D903200C
:10302000D3E71948006A00F002000028F0D01648E3
:10303000006A20F440706168084313490862012F58
:1030400004D10846C06920F08050C86100BF2078D4
:1030500000F00200022807D10B48406820F44040ED
:10306000A168084308494860207800F01000102843
:1030700007D10548406820F480006169084302498F
:1030800048600020A1E700000010024000700040EE
:103090004004424270B504460D4600266D48006863
:1030A00000F00700A8420ED26A48006820F007002E
:1030B0002843684908600846006800F00700A842F5
:1030C00001D0012070BD207800F0020002281DD13F
:1030D000207800F00400042805D15F48406840F4DF
:1030E000E0605D494860207800F00800082805D1BC
:1030F0005948406840F46050574948605648406815
:1031000020F0F000A168084353494860207800F09F
:10311000010000285DD06068012806D14E48006893
:1031200000F4003090B90120CCE76068022806D195
:103130004948006800F0007040B90120C2E74648E5
:10314000006800F0020008B90120BBE7424840686F
:1031500020F00300616808433F494860FEF7BEFC69
:1031600006466068012810D108E0FEF7B7FC801B16
:1031700041F28831884201D90320A3E736484068EC
:1031800000F00C000428F0D123E06068022810D180
:1031900008E0FEF7A3FC801B41F28831884201D988
:1031A00003208FE72C48406800F00C000828F0D17D
:1031B0000FE008E0FEF792FC801B41F28831884264
:1031C00001D903207EE72448406800F00C00002865
:1031D000F0D12048006800F00700A8420ED91D4831
:1031E000006820F0070028431A4908600846006874
:1031F00000F00700A84201D0012063E7207800F02A
:103200000400042807D11448406820F4E060E16815
:10321000084311494860207800F00800082808D1C8
:103220000D48406820F46050216940EAC1000A4915
:10323000486000F03DF808494968C1F30311074AA6
:10324000515CC840064908600020FFF7F7F90020EC
:1032500038E70000002002400010024060B2000881
:10326000B00000200148006870470000B000002056
:1032700000B5FFF7F7FF04494968C1F30221034A8B
:10328000515CC84000BD00000010024070B2000850
:1032900000B5FFF7E7FF04494968C1F3C221034ABB
:1032A000515CC84000BD00000010024070B2000830
:1032B000F0B585B00FF26C0C9CE8E01001A8A0E816
:1032C000E0101CA52D680095002100220023002499
:1032D0000020194D696801F00C05F5B1042D02D0EC
:1032E000082D19D101E0154819E001ADC1F383465D
:1032F000AC5D01F4803555B10F4D6D68C5F34045A7
:103300001DF805200D4D6543B5FBF2F302E00C4DB1
:1033100004FB05F3184602E000BF084800BF00BFE9
:1033200005B0F0BD02030405060708090A0B0C0DE1
:103330000E0F1010010200000010024000127A006F
:1033400000093D00F8B504460025207800F0010092
:10335000002878D0F848406800F00C0004280CD011
:10336000F548406800F00C00082811D1F248406888
:1033700000F48030B0F5803F0AD1EF48006800F4D7
:10338000003000285FD0606800285CD10120F8BDC3
:1033900000BF6068B0F5803F06D1E748006840F4A0
:1033A0008030E549086028E0606858B9E248006864
:1033B00020F48030E04908600846006820F480204E
:1033C00008601AE06068B0F5A02F0BD1DA480068F9
:1033D00040F48020D84908600846006840F48030F6
:1033E00008600AE0D448006820F48030D2490860C0
:1033F0000846006820F48020086000BF606888B13B
:10340000FEF76CFB054606E0FEF768FB401B6428F0
:1034100001D90320BBE7C848006800F40030002849
:10342000F2D010E0FEF75AFB054606E0FEF756FB29
:10343000401B642801D90320A9E7BF48006800F4B5
:1034400000300028F2D1207800F00200022857D185
:10345000B948406800F00C0050B1B748406800F02F
:103460000C00082818D1B448406800F4803098B99E
:10347000B148006800F0020020B12069012801D0A5
:10348000012084E7AC48006820F0F800616940EA58
:10349000C100A949086033E02069E8B10120A749CB
:1034A0000860FEF71BFB054606E0FEF717FB401B16
:1034B000022801D903206AE79F48006800F0020053
:1034C0000028F2D09C48006820F0F800616940EACA
:1034D000C1009949086013E0002098490860FEF790
:1034E000FDFA054606E0FEF7F9FA401B022801D96D
:1034F00003204CE79048006800F002000028F2D159
:10350000207800F0080008282DD1A069B8B101206A
:103510008B490860FEF7E2FA054606E0FEF7DEFAA0
:10352000401B022801D9032031E78348406A00F09C
:1035300002000028F2D0012002F054FF13E0002026
:103540007F490860FEF7CAFA054606E0FEF7C6FAAC
:10355000401B022801D9032019E77748406A00F090
:1035600002000028F2D1207800F00400042873D172
:1035700000267148C06900F0805070B900BF6E48E5
:10358000C06940F080506C49C8610846C06900F0CD
:103590008050009000BF00BF01266A48006800F418
:1035A0008070B0B96748006840F480706549086071
:1035B000FEF794FA054606E0FEF790FA401B6428F1
:1035C00001D90320E3E65F48006800F4807000281A
:1035D000F2D000BFE068012806D15748006A40F0E9
:1035E00001005549086227E0E06858B95248006A6E
:1035F00020F00100504908620846006A20F00400EB
:10360000086219E0E06805280BD14B48006A40F0D9
:103610000400494908620846006A40F00100086257
:103620000AE04548006A20F0010043490862084664
:10363000006A20F00400086200BFE068A0B1FEF755
:103640004DFA054609E0FEF749FA401B41F2883180
:10365000884202D903209AE622E03748006A00F047
:1036600002000028EFD012E0FEF738FA054608E025
:10367000FEF734FA401B41F28831884201D9032019
:1036800085E62D48006A00F002000028F0D1012EE6
:1036900005D12948C06920F080502749C86100BF82
:1036A000E069C8B32448406800F00C00082860D0E6
:1036B000E069022848D1002020490866FEF70EFA8A
:1036C000054606E0FEF70AFA401B022801D903204E
:1036D0005DE61948006800F000700028F2D1206A09
:1036E000B0F5803F07D11448406820F40030A1684D
:1036F000084311494860D4E9080108430E49496864
:1037000021F4741108430C49486001200B490866F4
:10371000FEF7E4F9054607E02DE0FEF7DFF9401B70
:10372000022801D9032032E60348006800F0007047
:103730000028F2D01FE000000010024000004242CA
:10374000800442420070004000200C490866FEF7E9
:10375000C5F9054606E0FEF7C1F9401B022801D96C
:10376000032014E60648006800F000700028F2D13B
:1037700001E001200BE6002009E6000000004242C3
:103780000010024070B5044600250CB9012070BD40
:10379000607C20B900202074204600F05BF80220F5
:1037A0006074204600F060F918B1042060740120B4
:1037B000EDE7204602F035FE18B1042060740120C8
:1037C000E5E72068406820F0070021684860A068AD
:1037D00028B11F48006820F001001D4908601C48FE
:1037E000001F006820F46070A16808431849091F91
:1037F00008606068401C08B1656809E00120FFF7B7
:1038000013FB05461DB9042060740120BFE76D1E3F
:103810002068806820F00F0040EA15402168886029
:103820002068C06865F30F002168C860204602F078
:1038300015FE18B1042060740120A8E70021E1738F
:1038400001216173A1730120607400209FE70000D3
:10385000306C004038B504460B492068884212D1CC
:10386000FFF7DCFA00BF0948C06940F00060074973
:10387000C8610846C06900F00060009000BF00BF4A
:1038800001200349086038BD0028004000100240B4
:103890003C0442422DE9F04704460D46904600267E
:1038A0000027B14604B115B90120BDE8F08700BF7B
:1038B000207C012801D10220F7E70120207400BFFD
:1038C00002206074B8F1000F06D1E978E1736978DD
:1038D0006173A978A1730BE0E87802F097FDE073BB
:1038E000687802F093FD6073A87802F08FFDA073F2
:1038F000A27B617BE07B02F0F4FD2073207B2870CB
:10390000204602F0D4FD06464FF46160B6FBF0F9A4
:10391000B9F1180F2FD91820B9FBF0F000EB4000D7
:10392000C000C0EB4011C1EB0020A6EB00163146F1
:10393000204602F02FFE38B10420607400BF002042
:10394000207400BF0120B0E7204602F0A4FD074626
:10395000781C80B1B7420ED20B4807443946204646
:1039600002F001FE38B10420607400BF0020207412
:1039700000BF012099E70120607400BF002020747F
:1039800000BF00BF91E70000805101002DE9F04722
:1039900004460D4690460026002704B115B90120C3
:1039A000BDE8F08700BF207C012801D10220F7E7A5
:1039B0000120207400BF02206074B8F1000F0BD109
:1039C00028784FF4616148436978C1EB011100EB3D
:1039D0008100A978461812E0287802F017FD4FF40C
:1039E000616100FB01F9687802F010FDC0EB001086
:1039F00009EB8009A87802F009FD09EB00063146C1
:103A0000204602F0C7FD38B10420607400BF0020DA
:103A1000207400BF0120C3E72068406820F0050043
:103A200021684860204602F036FD0746781C80B1C8
:103A3000B7420ED20B4807443946204602F093FDA8
:103A400038B10420607400BF0020207400BF012042
:103A5000A6E70120607400BF0020207400BF00BFF3
:103A60009EE700008051010070B5044600250CB9A6
:103A7000012070BD2068406820F00800216848607F
:103A8000FEF72CF8054607E0FEF728F8401BB0F5D6
:103A90007A7F01D90320ECE72068406800F0080035
:103AA0000028F1D00020E4E770B58AB004460D4646
:103AB0000026032084F83400606C032820D0B5F57C
:103AC000805F04D1A06B40F08050A0631CE0B5F58E
:103AD000006F07D1204603F07CFB0646A06B304305
:103AE000A06311E03DB9204603F03EFB0646A06B03
:103AF0003043A06308E0A06B40F00060A06303E0E7
:103B0000A06B40F08050A063A06B40B140F2FF502A
:103B100021688863012084F834000AB070BD6068B1
:103B20000490A0680590E068069007956069089089
:103B3000A069099007A807C88DE80700206804A9B4
:103B40000EC902F081FD012084F834000020E4E772
:103B500030B503460022586E020E90090870C2F379
:103B60008300487002F003008870586EC0F307426B
:103B7000CA70B3F86400C0F307220A7193F8642096
:103B80004A71986E020E4FF6FF7000EA0210C8806C
:103B9000986EC0F30742C88840EA1210C88002F04D
:103BA0000F0008726820C05AC0F30722D00948727B
:103BB000C2F380108872C2F34010C872C2F30010C2
:103BC000087300204873586C00283ED19007000D00
:103BD00008616820C25C086940EA82000861D86E0A
:103BE000020E086940EA92100861C2F3C20008752B
:103BF00002F007004875D86EC0F307425009887577
:103C0000C2F38200C8759007400F08766C20C05A36
:103C1000C0F30722087E40EAD21008760869401CEB
:103C200058650C7E586DA41C0125A5406843586555
:103C30000C7A0120A0409865D3E91504640A60431A
:103C4000D8654FF400741C6630E0586C012821D10F
:103C50006820C25C9006800A0861D86E020E08696E
:103C600040EA02200861D86EC0F307420869104399
:103C700008616C20C05AC0F307220869441C4FF445
:103C80008060A4FB00045865D8654FF400749C65FF
:103C90001C660BE040F2FF501C68A063986B40F07C
:103CA00080509863012083F8340030BDC2F3801047
:103CB00001F8190F9006400E48706C20C25C4878DD
:103CC00040EAD210487002F07F008870186F020E30
:103CD000D009C870C2F341100871C2F38200487164
:103CE0009007000F8871186FC0F30742887940EA87
:103CF00092108871C2F34010C8710020087202F05F
:103D0000010048727020C05AC0F30722D00988729F
:103D1000C2F38010C872C2F340100873C2F30010DF
:103D20004873C2F38100887302F00300C8737020E7
:103D3000C25C500808740120487419390020B4E7A7
:103D40000246506C0860906C4860D06C8860106DC2
:103D5000C860506D0861906D4861D06D8861106ECB
:103D6000C86100207047F8B50446042600250020ED
:103D700000906946204603F0DEF9054615B1A06BB8
:103D80002843A0630098C0F343263046F8BD10B521
:103D900004460CB9012010BD94F8340020B900206D
:103DA0002077204600F050F8032084F834002046A5
:103DB00000F008F80020A0632063012084F834009C
:103DC0000020E8E730B589B00446002500200390C4
:103DD0000490059006900790C320089006A807C895
:103DE0008DE80700206803A90EC902F02DFC002011
:103DF00014490860206802F041FC01201149A039F3
:103E0000C1F8A0000220FDF799FC204603F01CF940
:103E1000054645B1012084F83400A06B2843A06317
:103E2000012009B030BD204603F090F805463DB1B1
:103E3000012084F83400A06B2843A0630120F0E740
:103E40000020EEE7A000304210B586B00446002006
:103E500002900390049005902149206888423CD14B
:103E600000BF2048406940F480601E494861084610
:103E7000406900F48060019000BF00BF00BF0846A9
:103E8000806940F0100088610846806900F01000E9
:103E9000019000BF00BF00BF0846806940F02000CD
:103EA00088610846806900F02000019000BF00BFD3
:103EB0004FF4F8500290022003900320059002A9CD
:103EC0000948FDF761FC04200290022003900320C2
:103ED000059002A90548FDF757FC06B010BD00008B
:103EE0000080014000100240001001400014014019
:103EF0002DE9F04F87B004468A4690461E46DDF80D
:103F000040900025FDF7EAFD0090AB465746BAF118
:103F1000000F07D1A06B40F00060A063012007B044
:103F2000BDE8F08F94F8340001287DD10020A06313
:103F300008EB0601E06D814205D9A06B40F00070EE
:103F4000A0630120EBE7032084F8340000202168FF
:103F5000C862606C012801D04FEA48284FF4007114
:103F6000206802F0E9FB054655B140F2FF50216898
:103F70008863A06B2843A063012084F83400CEE757
:103F80004FF0FF30019070020290902003900220C9
:103F90000490002005900120069001A9206802F0FD
:103FA00029FB012E07D9022020634146206802F038
:103FB0002FFC054606E0012020634146206802F000
:103FC00044FC054655B140F2FF5021688863A06B60
:103FD0002843A063012084F83400A0E72AE0206889
:103FE000406B00F4004068B14FF0000B06E0206821
:103FF00002F049FB47F82B000BF1010BBBF1080F56
:10400000F5D32037B9F1000F05D0FDF767FD009912
:10401000401A48450ED340F2FF5021688863A06BD8
:1040200040F00040A06300E082E0012084F834000A
:10403000032074E72068406B40F22A3108400028D2
:10404000CDD02068406B00F48070A0B1012E12D951
:10405000606C03280FD0206802F0BEFC054655B105
:1040600040F2FF5021688863A06B2843A0630120C1
:1040700084F8340053E72068406B00F0080058B122
:1040800040F2FF5021688863A06B40F00800A063F5
:10409000012084F8340042E72068406B00F0020001
:1040A00058B140F2FF5021688863A06B40F00200D5
:1040B000A063012084F8340031E72068406B00F0F1
:1040C000200058B140F2FF5021688863A06B40F097
:1040D0002000A063012084F8340020E719E0206864
:1040E00002F0D1FA38603F1DB9F1000F05D0FDF79D
:1040F000F5FC0099401A48450BD340F2FF50216867
:104100008863A06B40F00040A063012084F8340075
:1041100005E72068406B00F400100028DFD140F272
:10412000FF5021688863012084F834000020F6E6FF
:10413000A06B40F00050A0630120F0E62DE9F04FA5
:1041400087B00446884617461E46DDF840B0002575
:10415000FDF7C4FC0090A946C246B8F1000F07D194
:10416000A06B40F00060A063012007B0BDE8F08FB5
:1041700094F8340001287DD10020A063B919E06DC6
:10418000814205D9A06B40F00070A0630120ECE7EC
:10419000032084F8340000202168C862606C012884
:1041A00000D07F024FF40071206802F0C5FA054686
:1041B00055B140F2FF5021688863A06B2843A0638B
:1041C000012084F83400D0E7012E07D92020206395
:1041D0003946206802F01EFC054606E010202063E8
:1041E0003946206802F033FC054655B140F2FF50D5
:1041F00021688863A06B2843A063012084F8340001
:10420000B3E74FF0FF3001907002029090200390CE
:104210000020049005900120069001A9206802F07A
:10422000E9F92AE02068406B00F4804070B14FF05B
:10423000000906E00AEB8901206802F03CFA09F166
:104240000109B9F1080FF5D30AF1200ABBF1000FFB
:1042500005D0FDF743FC0099401A58450DD340F2B4
:10426000FF5021688863A06B2843A063012084F875
:10427000340000E05EE0032077E72068406B40F206
:104280001A3108400028CDD02068406B00F48070BF
:10429000A0B1012E12D9606C03280FD0206802F063
:1042A0009BFB054655B140F2FF5021688863A06B27
:1042B0002843A063012084F8340056E72068406B4F
:1042C00000F0080058B140F2FF5021688863A06BED
:1042D00040F00800A063012084F8340045E720681E
:1042E000406B00F0020058B140F2FF502168886333
:1042F000A06B40F00200A063012084F8340034E792
:104300002068406B00F0100058B140F2FF50216867
:104310008863A06B40F01000A063012084F8340093
:1043200023E740F2FF5021688863012084F83400BD
:1043300000201AE7A06B40F00050A063012014E7B2
:1043400070B504462546681EB0F1807F01D3012078
:104350000FE0681E4FF0E02148610F214FF0FF3061
:1043600001F036FD00204FF0E02188610720086150
:10437000002070BD70477047024600BF92F83C00B5
:10438000012801D102207047012082F83C0000BFC3
:10439000022082F83D001068406820F07000136829
:1043A0005860106840680B681843136858601068BC
:1043B000806820F0800013689860106880684B68FF
:1043C000184313689860012082F83D0000BF002068
:1043D00082F83C0000BF00BFD5E710B504460CB919
:1043E000012010BD94F83D0028B9002084F83C005D
:1043F000204600F00DF8022084F83D00211D2068C1
:1044000003F002F9012084F83D000020E9E70000F4
:1044100038B504461A492068884216D100BF1948A9
:10442000C06940F010001749C8610846C06900F033
:104430001000009000BF00BF002211463620FEF79A
:104440005AF93620FEF74AF919E00F4920688842E8
:1044500015D100BF0B48C06940F020000949C86170
:104460000846C06900F02000009000BF00BF002295
:1044700011463720FEF73FF93720FEF72FF938BDF8
:1044800000100040001002400014004001460220CD
:1044900081F83D000868006840F001000A6810607B
:1044A000012081F83D000020704701460868C0687F
:1044B00040F001000A68D0600868006840F0010020
:1044C0000A681060002070470146022081F83D0014
:1044D00000BF0868006A41F21112104050B9086824
:1044E000006A9210104028B90868006820F00100A6
:1044F0000A68106000BF012081F83D00002070476D
:1045000001460868C06820F001000A68D06000BF5A
:104510000868006A41F21112104050B90868006A38
:104520009210104028B90868006820F001000A685D
:10453000106000BF00207047704710B50446206827
:104540000069C0F34000D8B12068C068C0F34000E3
:10455000B0B16FF002002168086101202077206867
:10456000806900F0030018B12046FFF7E5FF05E081
:10457000204600F0ADF8204600F0ABF80020207790
:1045800020680069C0F38000D8B12068C068C0F31B
:104590008000B0B16FF0040021680861022020772C
:1045A0002068806900F4407018B12046FFF7C4FF0E
:1045B00005E0204600F08CF8204600F08AF8002044
:1045C000207720680069C0F3C000D8B12068C068B7
:1045D000C0F3C000B0B16FF008002168086104208A
:1045E00020772068C06900F0030018B12046FFF76B
:1045F000A3FF05E0204600F06BF8204600F069F8C4
:104600000020207720680069C0F30010D8B120682E
:10461000C068C0F30010B0B16FF0100021680861ED
:10462000082020772068C06900F4407018B1204647
:10463000FFF782FF05E0204600F04AF8204600F030
:1046400048F8002020772068006900F0010058B188
:104650002068C06800F0010030B16FF001002168EF
:104660000861204600F036F820680069C0F3C010E9
:1046700058B12068C068C0F3C01030B16FF080003E
:10468000216808612046FFF775FE20680069C0F3C5
:10469000801058B12068C068C0F3801030B16FF04E
:1046A000400021680861204600F015F82068006984
:1046B000C0F3401058B12068C068C0F3401030B15A
:1046C0006FF02000216808612046FFF754FE10BDFE
:1046D000704770477047704700BFFEE710B502484B
:1046E000FDF704FA10BD0000E403002010B50248F5
:1046F000FDF774FA10BD0000E403002070B5054614
:104700006C6A2068006820F48060216808600020DE
:104710006085616B4863A16B486394F83D00602835
:1047200010D1202084F83D00002084F83E00206451
:104730002068006820F00100216808602046FDF72D
:10474000D3F90EE0202084F83D00002084F83E00DC
:104750002068006820F00100216808602046FDF70D
:10476000F9FA70BD70B5044694F83D50292D01D07A
:104770002A2D05D100202063282084F83D0011E077
:1047800094F83D00602809D02068406800F400607B
:10479000B0F5006F02D0202084F83D000020206397
:1047A00084F83E002068006820F4006021680860FA
:1047B0002068406800F40060B0F5006F40D12068C8
:1047C000406820F4006021684860606B90F8210028
:1047D000012814D03D48616B4863606BFCF77AFC9C
:1047E00000285BD02068006820F001002168086084
:1047F000202084F83D00606B416B88474EE03348D1
:10480000A16B4863A06BFCF765FC002846D02068CC
:104810004069C0F3801030B120680069C1B2626A9B
:10482000501C606211702068006820F0010021684F
:104830000860202084F83D00A06B416B88472DE084
:1048400094F83D0060281AD1202084F83D00002013
:10485000206420684069C0F3801030B1206800698E
:10486000C1B2626A501C606211702068006820F05A
:104870000100216808602046FDF736F90EE0206847
:104880004069C0F3801030B120680069C1B2626A2B
:10489000501C606211702046FDF75CFA94F83D00F0
:1048A000282811D1206C00F0040004280CD10848FD
:1048B000E06200202063202084F83D00002084F87E
:1048C0003E002046FDF7E0FB70BD0000FD460008FD
:1048D0000000FFFF014608684069C0F3802088B1EE
:1048E0006FF480600A685061042008640020086347
:1048F000202081F83D0000BF002081F83C0000BF6F
:10490000012070470020FCE770B50446E56A608D21
:10491000032817D1042D04D0082D02D015F5803FAF
:1049200005D12068006820F4806021680860206854
:104930000069C1B2626A501C60621170608D401ED5
:10494000608560E0608D022853D1042D1AD0082DB7
:1049500018D015F5803F15D0022D06D020680068CC
:1049600020F480602168086005E02068006840F459
:104970008060216808602068406820F440702168E9
:1049800048600BE02068406820F44070216848606F
:104990002068006840F400702168086020680069A1
:1049A000C1B2626A501C60621170608D401E6085E9
:1049B00020680069C1B2626A501C60621170608D2B
:1049C000401E6085202084F83D000020206394F87C
:1049D0003E00402806D1002084F83E002046FDF726
:1049E000BFFD10E0002084F83E002046FDF74DFB9F
:1049F00009E020680069C1B2626A501C60621170EF
:104A0000608D401E6085002070BD70B5044694F82E
:104A10003D00222866D10025658D032D0AD9206826
:104A20000069C1B2626A501C60621170608D401EE4
:104A3000608556E0022D01D0032D1CD1E06A0228CA
:104A40000CD02068006820F480602168086020682D
:104A5000006840F400602168086005E02068006894
:104A600040F48060216808602068406820F480601D
:104A70002168486035E0E06A022806D020680068B6
:104A800020F480602168086005E02068006840F438
:104A90008060216808602068406820F4E060216838
:104AA000486020680069C1B2626A501C606211707F
:104AB000608D401E6085202084F83D00002020632A
:104AC00094F83E00402806D1002084F83E0020469D
:104AD000FDF746FD05E0002084F83E002046FDF786
:104AE000D4FA00BF002070BD2DE9F84304460D46FE
:104AF00090461E46E76A2068006840F4806021689E
:104B00000860042F04D0012F02D017F5803F06D192
:104B10002068006840F480702168086008E0206B1D
:104B2000112805D12068006840F480702168086071
:104B3000434600224FF001112046009600F0B1FCE0
:104B400010B10320BDE8F8832069B0F5804F05D18E
:104B5000E8B240F001002168086149E005F44070C6
:104B6000F02141EAE01021680861334642462949B4
:104B7000204600F0D4FC30B1206C042801D1012083
:104B8000E0E70320DEE7E8B22168086133464246E9
:104B90002049891F204600F0C2FC30B1206C042857
:104BA00001D10120CEE70320CCE700BF0020009018
:104BB00020684069009020688069009000BF00BFB5
:104BC0002068006840F48070216808604346002235
:104BD0004FF001112046009600F063FC08B103205D
:104BE000B0E705F44070F12141EAE0102168086166
:104BF000334642460749891F204600F090FC30B1F9
:104C0000206C042801D101209CE703209AE70020B2
:104C100098E70000080001002DE9F84304460D461E
:104C200017469846E66A042E04D0012E02D016F5E7
:104C3000803F06D12068006840F4807021680860D9
:104C400008E0206B122805D12068006840F48070CD
:104C5000216808603B4600224FF001112046CDF844
:104C6000008000F01EFC10B10320BDE8F88320692D
:104C7000B0F5804F04D105F0FE002168086117E00F
:104C800005F44070F02141EAE010216808614346D4
:104C90003A461049204600F042FC30B1206C04280E
:104CA00001D10120E1E70320DFE7E8B221680861D4
:104CB00043463A460749891F204600F030FC30B190
:104CC000206C042801D10120CFE70320CDE700208C
:104CD000CBE700000800010070B50446E56A94F8CF
:104CE0003D00212846D1608D48B1616A481C606250
:104CF000087821680861608D401E60853AE0042DC7
:104D000016D0082D14D015F5803F11D020684068CA
:104D100020F4E0602168486011202063002084F8BE
:104D20003E00202084F83D002046FDF7AFF921E049
:104D30002068406820F4E0602168486020680068CE
:104D400040F400702168086000202063202084F86F
:104D50003D0094F83E00402806D1002084F83E0033
:104D60002046FDF7FEFB05E0002084F83E002046CB
:104D7000FDF78CF9002070BD2DE9F041044694F850
:104D80003D5094F83E70E66A208DB0BB212D3CD199
:104D9000042E16D0082E14D016F5803F11D02068AE
:104DA000406820F4E0602168486011202063002002
:104DB00084F83E00202084F83D002046FDF766F987
:104DC0007CE02068406820F4E0602168486020684A
:104DD000006840F4007021680860002020632020F3
:104DE00084F83D0094F83E00402807D1002084F864
:104DF0003E002046FDF7B5FB60E006E0002084F8A9
:104E00003E002046FDF742F958E0212D03D0402F07
:104E100054D1222D52D1608D30B92068406820F4E1
:104E200080602168486049E094F83E0040283CD109
:104E3000206D98B9E06C012807D1A06CC0B2216840
:104E40000861206D801C206538E0A06CC0F307204D
:104E500021680861206D401C20652FE0206D01282D
:104E600007D1A06CC0B221680861206D401C20658C
:104E700024E0206D022821D194F83D00222806D19B
:104E80002068006840F480702168086016E094F89B
:104E90003D00212812D1616A481C606208782168AF
:104EA0000861608D401E608508E0616A481C606290
:104EB000087821680861608D401E60850020BDE88B
:104EC000F0810146486CC0B20A681061002070474A
:104ED00038B5014691F83E30CA6A0C6B91F83D0036
:104EE000222873D1086D60B9402B0AD100BF002081
:104EF000009008684069009008688069009000BFD1
:104F000007E1086DC0B90869B0F5404F14D100BF82
:104F1000002000900868406900900868806900904F
:104F200000BF00BF0868006840F480700D6828600A
:104F3000086D401C0865ECE0488D88B900BF002072
:104F4000009008684069009008688069009000BF80
:104F500000BF0868006840F400700D682860CAE06F
:104F6000488D01286CD112F5803F30D10868006867
:104F700020F480600D6828600868406800F40060D4
:104F8000B0F5006F10D10868006820F480600D68EB
:104F9000286000BF00200090086840690090086801
:104FA0008069009000BFA6E000BF00200090086864
:104FB0004069009008688069009000BF00BF0868E1
:104FC000006840F400700D68286094E096E0042AC0
:104FD0001ED0082A1CD0122C1AD0C86A022806D06B
:104FE0000868006820F480600D68286005E00868A3
:104FF000006840F480600D68286000BF00200090C9
:1050000008684069009008688069009000BF72E0FD
:105010000868006820F480600D68286000BF0020E8
:10502000009008684069009008688069009000BF9F
:1050300000BF0868006840F400700D6828605AE0FE
:10504000488D022839D1C86A022817D0086800683C
:1050500040F400600D68286000BF002000900868E0
:105060004069009008688069009000BF00BF086830
:10507000006820F480600D68286010E0086800680F
:1050800040F480600D68286000BF00200090086830
:105090004069009008688069009000BF00BF086800
:1050A000406800F40060B0F5006F24D108684068E3
:1050B00040F480500D6868601DE00868006840F4A6
:1050C00080600D6828600868406800F40060B0F5F2
:1050D000006F05D10868406840F480500D68686032
:1050E00000BF00200090086840690090086880694F
:1050F000009000BF00BF002008650AE000BF00204C
:10510000009008684069009008688069009000BFBE
:1051100000BF002038BD014691F83E0040280ED166
:10512000086D28B9486C00F0FE000A68106131E093
:10513000486CC0B240F001000A6810612AE00869BA
:10514000B0F5804F10D191F83D00212805D1486C71
:1051500000F0FE000A6810611CE0486CC0B240F02C
:1051600001000A68106115E0086D40B9486C00F450
:105170004070F02242EAE0100A6810610AE0086D0F
:10518000012807D1486C00F44070F12242EAE01097
:105190000A681061002070470146488D48B10868D0
:1051A0000069C2B24B6A581C48621A70488D401E92
:1051B00048850020704770B5044694F83D50608DD6
:1051C000D8B120680069C1B2626A501C6062117077
:1051D000608D401E6085608D78B92A2D0DD12068C4
:1051E000406820F4806021684860222020632820E5
:1051F00084F83D002046FDF7FFF9002070BD014610
:10520000488D40B14A6A501C486210780A681061A3
:10521000488D401E48850020704770B5044694F8BC
:105220003D50608DD0B1616A481C60620878216889
:105230000861608D401E6085608D78B9292D0DD183
:105240002068406820F48060216848602120206345
:10525000282084F83D002046FDF7CFF9002070BDDE
:1052600070B504460025002620688069C0F38000E0
:1052700000B9012520688069C0F3C01010B9A08969
:1052800086B201E0208B86B2324629462046FCF7E2
:105290002CFC002070BD000070B5044694F83D5011
:1052A000E66A042E01D0082E1FD1282D1DD12248D8
:1052B000E0622068406820F4E060216848606FF494
:1052C0008060216848612068006820F4806021685F
:1052D000086000202063202084F83D00002084F82E
:1052E0003E002046FCF7D0FE23E0212D1DD11248C0
:1052F000E06221202063202084F83D00002084F813
:105300003E002068406820F4E060216848606FF447
:105310008060216848612068006820F4806021680E
:1053200008602046FDF769F903E06FF480602168AA
:105330004861002070BD00000000FFFF38B5044642
:1053400094F83D502068406820F4E060216848608F
:1053500000BF00200090206840690090206800682D
:1053600040F001002168086000BF00BF20680068AD
:1053700020F48060216808602068406800F40060C4
:10538000B0F5006F10D194F83D00222803D094F8B6
:105390003D002A2804D1A06B00684068608503E0C6
:1053A000606B006840686085608D08B32068406964
:1053B000C0F3800048B120680069C1B2626A501C25
:1053C00060621170608D401E608520684069C0F386
:1053D000801048B120680069C1B2626A501C6062E6
:1053E0001170608D401E6085206C40F004002064C8
:1053F000206C18B12046FFF7B5F923E0282D03D023
:105400002A2D01D0292D0DD10F48E0620020206304
:10541000202084F83D00002084F83E002046FCF760
:1054200033FE0FE0206B222801D0222D0AD100206C
:105430002063202084F83D00002084F83E002046B0
:10544000FDF7DAF8002038BD0000FFFF70B5044614
:105450000D4616461DE02046FFF73CFA08B1012034
:1054600070BD681CA8B125B1FCF738FB801BA842B1
:105470000FD9206C40F02000206400202063202001
:1054800084F83D0000BF002084F83C0000BF0320EA
:10549000E6E720684069C0F380000028DBD00020E8
:1054A000DEE72DE9F04104460D4617461E46DDF8BD
:1054B000188017E0701CA8B12EB1FCF70FFBA0EB11
:1054C0000800B0420ED900202063202084F83D005F
:1054D000002084F83E0000BF84F83C0000BF032099
:1054E000BDE8F081C5F3074001280AD12068406972
:1054F000A9B20840A9B2884201D101200BE00020E6
:1055000009E020688069A9B20840A9B2884201D1A7
:10551000012000E00020B842CCD00020E0E72DE9D7
:10552000F04104460D4616461F4631E020684069AA
:10553000C0F38020C0B12068006840F4007021688A
:1055400008606FF4806021684861042020640020B6
:105550002063202084F83D0000BF002084F83C0038
:1055600000BF0120BDE8F081701C88B126B1FCF7B6
:10557000B5FAC01BB0420BD900202063202084F86C
:105580003D0000BF002084F83C0000BF0320E9E795
:10559000C5F3074001280AD120684069A9B2084034
:1055A000A9B2884201D101200BE0002009E0206867
:1055B0008069A9B20840A9B2884201D1012000E067
:1055C00000200028B2D00020CCE770B504460D467C
:1055D000164629E020684069C0F3001080B16FF0E2
:1055E000100021684861002020642063202084F896
:1055F0003D0000BF002084F83C0000BF012070BDCA
:1056000025B1FCF76BFA801BA8420DD9206C40F045
:1056100020002064202084F83D0000BF002084F892
:105620003C0000BF0320EAE720684069C0F3801017
:105630000028CFD00020E2E770B504460D4616469C
:105640001DE02046FFF746F908B1012070BD681C37
:10565000A8B125B1FCF742FA801BA8420FD9206CF3
:1056600040F02000206400202063202084F83D00CA
:1056700000BF002084F83C0000BF0320E6E720685C
:105680004069C0F3C0100028DBD00020DEE730B551
:105690000B46002100BF16E00A24B4EB107F05D9A9
:1056A000302404EB107403F8114005E0412404EBAE
:1056B00010740A3C03F81140000100254C00641CE2
:1056C0001D554C1CE1B29142E6DB30BD2DE9FF4790
:1056D00005460C4616461F46DDF8308075200390BF
:1056E000A94646F0D000207094F800A005230222BD
:1056F00051464846FCF7EEFB18B1022004B0BDE865
:10570000F0874FF47A70012303AA5146009048466F
:10571000FCF75CFE08B10220F0E74FF47A70012339
:1057200002AA514600904846FCF7B2FC08B102209C
:10573000E4E701E00420E1E79DF808006828F9D1DA
:105740006B208DF8040000208DF805004FF47A706E
:10575000022301AA514600904846FCF737FE08B1E3
:105760000220CBE707222146284600F0CEF83A4631
:105770002146284600F076F842462146284600F0A9
:10578000E1F80120BAE700002DE9F04786B00546B0
:105790000C463B2001902F4694F8008000BF4FF448
:1057A0007A70012301AA414600903846FCF70EFEAC
:1057B0000028F4D100BF4FF47A700E2302AA4146AC
:1057C00000903846FCF764FC0028F4D19DF80900ED
:1057D0009DF8081040EA012000B2A0819DF80B005E
:1057E0009DF80A1040EA012000B2E0819DF80D000A
:1057F0009DF80C1040EA012000B220829DF80F00B5
:105800009DF80E1040EA012006B23046FAF7B9FDC5
:1058100082461249FAF777FD81461149FAF71BFDD6
:10582000A0619DF811009DF8101040EA012000B21F
:1058300060829DF813009DF8121040EA012000B22A
:10584000A0829DF815009DF8141040EA012000B2D6
:10585000E082012006B0BDE8F08700000000AA4306
:10586000B81E12422DE9FE4306460C461546374641
:1058700094F800801C20019000BF4FF47A7001233F
:1058800001AA414600903846FCF7A0FD0028F4D15B
:1058900000BF4FF47A70012302AA414600903846B7
:1058A000FCF7F6FB0028F4D19DF8080000F0E700B3
:1058B00040EAC500C0B2029000BF4FF47A700123E5
:1058C00002AA414600903846FCF780FD0028F4D13A
:1058D00035B1012D08D0022D0AD0032D10D10BE0D7
:1058E0004FF06250A0600CE04FF06450A06008E000
:1058F0004FF06650A06004E04FF06850A06000E0F8
:1059000000BF00BF0120BDE8FE832DE9FC41044635
:105910000D461646274695F8008019208DF804009C
:105920008DF8056000BF4FF47A70022301AA41464A
:1059300000903846FCF74AFD0028F4D10120BDE86C
:10594000FC8100002DE9FE4306460C46154637460D
:1059500094F800801B20019000BF4FF47A7001235F
:1059600001AA414600903846FCF730FD0028F4D1EA
:1059700000BF4FF47A70012302AA414600903846D6
:10598000FCF786FB0028F4D19DF8080000F0E70042
:1059900040EAC500C0B2029000BF4FF47A70012304
:1059A00002AA414600903846FCF710FD0028F4D1C9
:1059B00035B1012D07D0022D08D0032D0CD108E000
:1059C0000848606009E00848606006E007486060D9
:1059D00003E00748606000E000BF00BF0120BDE8B1
:1059E000FE8300002D23FA3B2D237A3C90C1F93C25
:1059F00090C1793D0EB500200090019002901748AB
:105A0000174908608115164881600021C160416115
:105A10004FF46021C1610020114948600221104803
:105A20000161FBF791F908B1FBF709F8012000903B
:105A300001900720029069460948FBF7D1F808B1A8
:105A4000FAF7FDFF102000900220019069460448FB
:105A5000FBF7C6F808B1FAF7F2FF0EBD00240140CB
:105A60007003002008B500BF0A48406940F00100FB
:105A7000084948610846406900F00100009000BFF5
:105A800000BF002211460B20FCF735FE0B20FCF76F
:105A900025FE08BD0010024010B503490348FAF77F
:105AA000CFFF0349087010BD4000002024B3000858
:105AB0003F00002000B585B00020019002900390C7
:105AC000049000BF3448806940F01000324988617A
:105AD0000846806900F01000009000BF00BF00BFC2
